{
  "contractName": "Betting",
  "abi": [
    {
      "inputs": [
        {
          "internalType": "address payable",
          "name": "tBAddress",
          "type": "address"
        }
      ],
      "stateMutability": "nonpayable",
      "type": "constructor"
    },
    {
      "anonymous": false,
      "inputs": [
        {
          "indexed": true,
          "internalType": "bytes32",
          "name": "contractHash",
          "type": "bytes32"
        },
        {
          "indexed": true,
          "internalType": "address",
          "name": "bettor",
          "type": "address"
        },
        {
          "indexed": false,
          "internalType": "uint8",
          "name": "epoch",
          "type": "uint8"
        },
        {
          "indexed": false,
          "internalType": "uint8",
          "name": "pick",
          "type": "uint8"
        },
        {
          "indexed": false,
          "internalType": "uint8",
          "name": "matchnum",
          "type": "uint8"
        },
        {
          "indexed": false,
          "internalType": "uint256",
          "name": "timestamp",
          "type": "uint256"
        },
        {
          "indexed": false,
          "internalType": "uint256",
          "name": "betsize",
          "type": "uint256"
        },
        {
          "indexed": false,
          "internalType": "uint256",
          "name": "payoff",
          "type": "uint256"
        },
        {
          "indexed": false,
          "internalType": "uint256",
          "name": "oddsOffered",
          "type": "uint256"
        }
      ],
      "name": "BetBigRecord",
      "type": "event"
    },
    {
      "anonymous": false,
      "inputs": [
        {
          "indexed": true,
          "internalType": "bytes32",
          "name": "contractHash",
          "type": "bytes32"
        },
        {
          "indexed": true,
          "internalType": "address",
          "name": "bettor",
          "type": "address"
        },
        {
          "indexed": false,
          "internalType": "uint8",
          "name": "epoch",
          "type": "uint8"
        },
        {
          "indexed": false,
          "internalType": "uint8",
          "name": "pick",
          "type": "uint8"
        },
        {
          "indexed": false,
          "internalType": "uint8",
          "name": "matchnum",
          "type": "uint8"
        },
        {
          "indexed": false,
          "internalType": "uint256",
          "name": "timestamp",
          "type": "uint256"
        },
        {
          "indexed": false,
          "internalType": "uint256",
          "name": "betsize",
          "type": "uint256"
        },
        {
          "indexed": false,
          "internalType": "uint256",
          "name": "payoff",
          "type": "uint256"
        }
      ],
      "name": "BetRecord",
      "type": "event"
    },
    {
      "inputs": [],
      "name": "admin",
      "outputs": [
        {
          "internalType": "address",
          "name": "",
          "type": "address"
        }
      ],
      "stateMutability": "view",
      "type": "function",
      "constant": true
    },
    {
      "inputs": [],
      "name": "adminPower",
      "outputs": [
        {
          "internalType": "bool",
          "name": "",
          "type": "bool"
        }
      ],
      "stateMutability": "view",
      "type": "function",
      "constant": true
    },
    {
      "inputs": [],
      "name": "betEpoch",
      "outputs": [
        {
          "internalType": "uint8",
          "name": "",
          "type": "uint8"
        }
      ],
      "stateMutability": "view",
      "type": "function",
      "constant": true
    },
    {
      "inputs": [
        {
          "internalType": "uint256",
          "name": "",
          "type": "uint256"
        },
        {
          "internalType": "uint256",
          "name": "",
          "type": "uint256"
        }
      ],
      "name": "betLong",
      "outputs": [
        {
          "internalType": "uint256",
          "name": "",
          "type": "uint256"
        }
      ],
      "stateMutability": "view",
      "type": "function",
      "constant": true
    },
    {
      "inputs": [
        {
          "internalType": "uint256",
          "name": "",
          "type": "uint256"
        },
        {
          "internalType": "uint256",
          "name": "",
          "type": "uint256"
        }
      ],
      "name": "betPayout",
      "outputs": [
        {
          "internalType": "uint256",
          "name": "",
          "type": "uint256"
        }
      ],
      "stateMutability": "view",
      "type": "function",
      "constant": true
    },
    {
      "inputs": [],
      "name": "concentrationLimit",
      "outputs": [
        {
          "internalType": "uint256",
          "name": "",
          "type": "uint256"
        }
      ],
      "stateMutability": "view",
      "type": "function",
      "constant": true
    },
    {
      "inputs": [
        {
          "internalType": "uint256",
          "name": "",
          "type": "uint256"
        }
      ],
      "name": "decOdds",
      "outputs": [
        {
          "internalType": "uint256",
          "name": "",
          "type": "uint256"
        }
      ],
      "stateMutability": "view",
      "type": "function",
      "constant": true
    },
    {
      "inputs": [],
      "name": "earliestStart",
      "outputs": [
        {
          "internalType": "uint256",
          "name": "",
          "type": "uint256"
        }
      ],
      "stateMutability": "view",
      "type": "function",
      "constant": true
    },
    {
      "inputs": [
        {
          "internalType": "address",
          "name": "",
          "type": "address"
        }
      ],
      "name": "lpStruct",
      "outputs": [
        {
          "internalType": "uint256",
          "name": "shares",
          "type": "uint256"
        },
        {
          "internalType": "uint8",
          "name": "epoch",
          "type": "uint8"
        }
      ],
      "stateMutability": "view",
      "type": "function",
      "constant": true
    },
    {
      "inputs": [
        {
          "internalType": "uint256",
          "name": "",
          "type": "uint256"
        }
      ],
      "name": "margin",
      "outputs": [
        {
          "internalType": "uint256",
          "name": "",
          "type": "uint256"
        }
      ],
      "stateMutability": "view",
      "type": "function",
      "constant": true
    },
    {
      "inputs": [],
      "name": "minBet",
      "outputs": [
        {
          "internalType": "uint256",
          "name": "",
          "type": "uint256"
        }
      ],
      "stateMutability": "view",
      "type": "function",
      "constant": true
    },
    {
      "inputs": [],
      "name": "nonce",
      "outputs": [
        {
          "internalType": "uint32",
          "name": "",
          "type": "uint32"
        }
      ],
      "stateMutability": "view",
      "type": "function",
      "constant": true
    },
    {
      "inputs": [
        {
          "internalType": "bytes32",
          "name": "",
          "type": "bytes32"
        }
      ],
      "name": "offercontracts",
      "outputs": [
        {
          "internalType": "uint8",
          "name": "pick",
          "type": "uint8"
        },
        {
          "internalType": "uint8",
          "name": "matchNum",
          "type": "uint8"
        },
        {
          "internalType": "uint8",
          "name": "epoch",
          "type": "uint8"
        },
        {
          "internalType": "address",
          "name": "bettor",
          "type": "address"
        },
        {
          "internalType": "uint256",
          "name": "betAmount",
          "type": "uint256"
        },
        {
          "internalType": "uint256",
          "name": "payoff",
          "type": "uint256"
        },
        {
          "internalType": "uint256",
          "name": "oddsOffered",
          "type": "uint256"
        }
      ],
      "stateMutability": "view",
      "type": "function",
      "constant": true
    },
    {
      "inputs": [],
      "name": "oracleAdmin",
      "outputs": [
        {
          "internalType": "address payable",
          "name": "",
          "type": "address"
        }
      ],
      "stateMutability": "view",
      "type": "function",
      "constant": true
    },
    {
      "inputs": [],
      "name": "oracleBalance",
      "outputs": [
        {
          "internalType": "uint256",
          "name": "",
          "type": "uint256"
        }
      ],
      "stateMutability": "view",
      "type": "function",
      "constant": true
    },
    {
      "inputs": [
        {
          "internalType": "bytes32",
          "name": "",
          "type": "bytes32"
        }
      ],
      "name": "pickEpochResult",
      "outputs": [
        {
          "internalType": "uint8",
          "name": "",
          "type": "uint8"
        }
      ],
      "stateMutability": "view",
      "type": "function",
      "constant": true
    },
    {
      "inputs": [
        {
          "internalType": "uint256",
          "name": "",
          "type": "uint256"
        }
      ],
      "name": "startTime",
      "outputs": [
        {
          "internalType": "uint256",
          "name": "",
          "type": "uint256"
        }
      ],
      "stateMutability": "view",
      "type": "function",
      "constant": true
    },
    {
      "inputs": [
        {
          "internalType": "bytes32",
          "name": "",
          "type": "bytes32"
        }
      ],
      "name": "subcontracts",
      "outputs": [
        {
          "internalType": "uint8",
          "name": "pick",
          "type": "uint8"
        },
        {
          "internalType": "uint8",
          "name": "matchNum",
          "type": "uint8"
        },
        {
          "internalType": "uint8",
          "name": "epoch",
          "type": "uint8"
        },
        {
          "internalType": "address",
          "name": "bettor",
          "type": "address"
        },
        {
          "internalType": "uint256",
          "name": "betAmount",
          "type": "uint256"
        },
        {
          "internalType": "uint256",
          "name": "payoff",
          "type": "uint256"
        }
      ],
      "stateMutability": "view",
      "type": "function",
      "constant": true
    },
    {
      "inputs": [
        {
          "internalType": "uint256",
          "name": "",
          "type": "uint256"
        }
      ],
      "name": "teamSchedule",
      "outputs": [
        {
          "internalType": "string",
          "name": "",
          "type": "string"
        }
      ],
      "stateMutability": "view",
      "type": "function",
      "constant": true
    },
    {
      "inputs": [],
      "name": "token",
      "outputs": [
        {
          "internalType": "contract Token",
          "name": "",
          "type": "address"
        }
      ],
      "stateMutability": "view",
      "type": "function",
      "constant": true
    },
    {
      "inputs": [],
      "name": "totalShares",
      "outputs": [
        {
          "internalType": "uint256",
          "name": "",
          "type": "uint256"
        }
      ],
      "stateMutability": "view",
      "type": "function",
      "constant": true
    },
    {
      "stateMutability": "payable",
      "type": "receive",
      "payable": true
    },
    {
      "inputs": [
        {
          "internalType": "address payable",
          "name": "_oracleAddress",
          "type": "address"
        }
      ],
      "name": "setOracleAddress",
      "outputs": [],
      "stateMutability": "nonpayable",
      "type": "function"
    },
    {
      "inputs": [],
      "name": "fundBook",
      "outputs": [],
      "stateMutability": "payable",
      "type": "function",
      "payable": true
    },
    {
      "inputs": [
        {
          "internalType": "uint256",
          "name": "sharesToSell",
          "type": "uint256"
        }
      ],
      "name": "withdrawBook",
      "outputs": [],
      "stateMutability": "nonpayable",
      "type": "function"
    },
    {
      "inputs": [],
      "name": "claimTokens",
      "outputs": [],
      "stateMutability": "nonpayable",
      "type": "function"
    },
    {
      "inputs": [
        {
          "internalType": "uint256",
          "name": "_minbet",
          "type": "uint256"
        },
        {
          "internalType": "uint256",
          "name": "_maxPos",
          "type": "uint256"
        }
      ],
      "name": "betTokens",
      "outputs": [],
      "stateMutability": "nonpayable",
      "type": "function"
    },
    {
      "inputs": [
        {
          "internalType": "uint256",
          "name": "_minbet",
          "type": "uint256"
        },
        {
          "internalType": "uint256",
          "name": "_maxPos",
          "type": "uint256"
        }
      ],
      "name": "adjustParams",
      "outputs": [],
      "stateMutability": "nonpayable",
      "type": "function"
    },
    {
      "inputs": [],
      "name": "withdrawOracle",
      "outputs": [],
      "stateMutability": "nonpayable",
      "type": "function"
    },
    {
      "inputs": [
        {
          "internalType": "uint8",
          "name": "matchNumber",
          "type": "uint8"
        },
        {
          "internalType": "uint8",
          "name": "pickLong",
          "type": "uint8"
        }
      ],
      "name": "bet",
      "outputs": [],
      "stateMutability": "payable",
      "type": "function",
      "payable": true
    },
    {
      "inputs": [
        {
          "internalType": "uint8",
          "name": "_matchNum",
          "type": "uint8"
        },
        {
          "internalType": "uint8",
          "name": "_pickLong",
          "type": "uint8"
        }
      ],
      "name": "betBig",
      "outputs": [],
      "stateMutability": "payable",
      "type": "function",
      "payable": true
    },
    {
      "inputs": [
        {
          "internalType": "bytes32",
          "name": "subkid",
          "type": "bytes32"
        }
      ],
      "name": "takeBig",
      "outputs": [],
      "stateMutability": "payable",
      "type": "function",
      "payable": true
    },
    {
      "inputs": [
        {
          "internalType": "bytes32",
          "name": "subkid2",
          "type": "bytes32"
        }
      ],
      "name": "killBig",
      "outputs": [],
      "stateMutability": "nonpayable",
      "type": "function"
    },
    {
      "inputs": [
        {
          "internalType": "uint8[32]",
          "name": "winner",
          "type": "uint8[32]"
        }
      ],
      "name": "settle",
      "outputs": [],
      "stateMutability": "nonpayable",
      "type": "function"
    },
    {
      "inputs": [
        {
          "internalType": "bytes32",
          "name": "_subkId",
          "type": "bytes32"
        }
      ],
      "name": "redeem",
      "outputs": [],
      "stateMutability": "nonpayable",
      "type": "function"
    },
    {
      "inputs": [],
      "name": "inactiveBook",
      "outputs": [],
      "stateMutability": "nonpayable",
      "type": "function"
    },
    {
      "inputs": [
        {
          "internalType": "string[32]",
          "name": "_teamSchedule",
          "type": "string[32]"
        },
        {
          "internalType": "uint256[32]",
          "name": "_startTime",
          "type": "uint256[32]"
        },
        {
          "internalType": "uint256[32]",
          "name": "_decOdds",
          "type": "uint256[32]"
        },
        {
          "internalType": "uint256",
          "name": "earlyStart",
          "type": "uint256"
        }
      ],
      "name": "transmitInit",
      "outputs": [],
      "stateMutability": "nonpayable",
      "type": "function"
    },
    {
      "inputs": [
        {
          "internalType": "uint256[32]",
          "name": "_decOdds",
          "type": "uint256[32]"
        }
      ],
      "name": "transmitDecOdds",
      "outputs": [],
      "stateMutability": "nonpayable",
      "type": "function"
    },
    {
      "inputs": [
        {
          "internalType": "uint256",
          "name": "i",
          "type": "uint256"
        }
      ],
      "name": "showLongs",
      "outputs": [
        {
          "internalType": "uint256[32]",
          "name": "",
          "type": "uint256[32]"
        }
      ],
      "stateMutability": "view",
      "type": "function",
      "constant": true
    },
    {
      "inputs": [
        {
          "internalType": "uint256",
          "name": "i",
          "type": "uint256"
        }
      ],
      "name": "showLPGross",
      "outputs": [
        {
          "internalType": "uint256[32]",
          "name": "",
          "type": "uint256[32]"
        }
      ],
      "stateMutability": "view",
      "type": "function",
      "constant": true
    },
    {
      "inputs": [],
      "name": "showdecOdds",
      "outputs": [
        {
          "internalType": "uint256[32]",
          "name": "",
          "type": "uint256[32]"
        }
      ],
      "stateMutability": "view",
      "type": "function",
      "constant": true
    },
    {
      "inputs": [],
      "name": "showSchedString",
      "outputs": [
        {
          "internalType": "string[32]",
          "name": "",
          "type": "string[32]"
        }
      ],
      "stateMutability": "view",
      "type": "function",
      "constant": true
    },
    {
      "inputs": [],
      "name": "showStartTime",
      "outputs": [
        {
          "internalType": "uint256[32]",
          "name": "",
          "type": "uint256[32]"
        }
      ],
      "stateMutability": "view",
      "type": "function",
      "constant": true
    },
    {
      "inputs": [],
      "name": "showMargin",
      "outputs": [
        {
          "internalType": "uint256",
          "name": "unusedCapital",
          "type": "uint256"
        },
        {
          "internalType": "uint256",
          "name": "usedCapital",
          "type": "uint256"
        },
        {
          "internalType": "uint256",
          "name": "betCapital",
          "type": "uint256"
        },
        {
          "internalType": "uint256",
          "name": "oraclBalance",
          "type": "uint256"
        },
        {
          "internalType": "uint256",
          "name": "redeemPot",
          "type": "uint256"
        },
        {
          "internalType": "uint256",
          "name": "kontractEthBal",
          "type": "uint256"
        }
      ],
      "stateMutability": "view",
      "type": "function",
      "constant": true
    },
    {
      "inputs": [
        {
          "internalType": "bytes32",
          "name": "_subkID",
          "type": "bytes32"
        }
      ],
      "name": "checkOpen",
      "outputs": [
        {
          "internalType": "bool",
          "name": "",
          "type": "bool"
        }
      ],
      "stateMutability": "view",
      "type": "function",
      "constant": true
    },
    {
      "inputs": [
        {
          "internalType": "bytes32",
          "name": "_subkID",
          "type": "bytes32"
        }
      ],
      "name": "checkRedeem",
      "outputs": [
        {
          "internalType": "bool",
          "name": "",
          "type": "bool"
        }
      ],
      "stateMutability": "view",
      "type": "function",
      "constant": true
    },
    {
      "inputs": [
        {
          "internalType": "uint256",
          "name": "_match",
          "type": "uint256"
        },
        {
          "internalType": "uint256",
          "name": "_player",
          "type": "uint256"
        }
      ],
      "name": "odds",
      "outputs": [
        {
          "internalType": "uint256",
          "name": "",
          "type": "uint256"
        }
      ],
      "stateMutability": "view",
      "type": "function",
      "constant": true
    }
  ],
  "bytecode": "0x60806040523480156200001157600080fd5b506040516200524738038062005247833981810160405281019062000037919062000123565b66038d7ea4c6800060e881905550600560ea819055506001600060156101000a81548160ff021916908360ff1602179055508060e160006101000a81548173ffffffffffffffffffffffffffffffffffffffff021916908373ffffffffffffffffffffffffffffffffffffffff160217905550336000806101000a81548173ffffffffffffffffffffffffffffffffffffffff021916908373ffffffffffffffffffffffffffffffffffffffff1602179055506001600060146101000a81548160ff021916908315150217905550506200019d565b6000815190506200011d8162000183565b92915050565b6000602082840312156200013657600080fd5b600062000146848285016200010c565b91505092915050565b60006200015c8262000163565b9050919050565b600073ffffffffffffffffffffffffffffffffffffffff82169050919050565b6200018e816200014f565b81146200019a57600080fd5b50565b61509a80620001ad6000396000f3fe6080604052600436106102815760003560e01c806372331cf31161014f578063affed0e0116100c1578063dea5e6e81161007a578063dea5e6e8146109a0578063e23c09f8146109cb578063ea9d21ec14610a08578063eda1122c14610a4b578063f851a44014610a74578063fc0c546a14610a9f57610288565b8063affed0e01461088a578063be73205a146108b5578063c9a3131b146108f2578063cae7af611461091b578063cb56067814610959578063d773f46e1461098457610288565b8063936026ea11610113578063936026ea146107785780639619367d146107a3578063a4289fe3146107ce578063a56592441461080b578063a88379c614610836578063aa6a97f61461087357610288565b806372331cf31461067a5780637c0be210146106b75780638174a509146106f457806381bef6101461073157806389e997e11461074d57610288565b80633a98ef39116101f357806352e057bd116101ac57806352e057bd1461057b57806354ad71eb146105a457806366467b80146105cd5780636b875f5c146105fd5780636d79ef04146106145780637013cc561461065157610288565b80633a98ef391461046b5780633ec4c9681461049657806345f29686146104d357806348c54b9d146105105780634c69c00f146105275780634e5b28401461055057610288565b80631eb9d997116102455780631eb9d9971461035657806322cb338c1461037257806324ac4c4e1461039d57806326028f71146103da57806329523660146104175780633374f68e1461044057610288565b806303e95abf1461028d5780630c26f994146102975780631340d9e0146102c0578063160919bf146102e95780631d95807c1461031457610288565b3661028857005b600080fd5b610295610aca565b005b3480156102a357600080fd5b506102be60048036038101906102b99190613e42565b610c57565b005b3480156102cc57600080fd5b506102e760048036038101906102e29190613e18565b611010565b005b3480156102f557600080fd5b506102fe61107f565b60405161030b91906147f7565b60405180910390f35b34801561032057600080fd5b5061033b60048036038101906103369190613e95565b61115c565b60405161034d96959493929190614b68565b60405180910390f35b610370600480360381019061036b9190613e95565b6111df565b005b34801561037e57600080fd5b506103876119b0565b6040516103949190614819565b60405180910390f35b3480156103a957600080fd5b506103c460048036038101906103bf9190613ebe565b6119fb565b6040516103d19190614a8d565b60405180910390f35b3480156103e657600080fd5b5061040160048036038101906103fc9190613ebe565b611a16565b60405161040e9190614819565b60405180910390f35b34801561042357600080fd5b5061043e60048036038101906104399190613e95565b611a72565b005b34801561044c57600080fd5b50610455611c01565b6040516104629190614a8d565b60405180910390f35b34801561047757600080fd5b50610480611c07565b60405161048d9190614a8d565b60405180910390f35b3480156104a257600080fd5b506104bd60048036038101906104b89190613ebe565b611c0d565b6040516104ca9190614a8d565b60405180910390f35b3480156104df57600080fd5b506104fa60048036038101906104f59190613ebe565b611c28565b6040516105079190614a8d565b60405180910390f35b34801561051c57600080fd5b50610525611c43565b005b34801561053357600080fd5b5061054e60048036038101906105499190613d71565b611ed6565b005b34801561055c57600080fd5b50610565612011565b6040516105729190614a8d565b60405180910390f35b34801561058757600080fd5b506105a2600480360381019061059d9190613d9a565b612017565b005b3480156105b057600080fd5b506105cb60048036038101906105c69190613ebe565b6120b4565b005b3480156105d957600080fd5b506105e2612340565b6040516105f496959493929190614aa8565b60405180910390f35b34801561060957600080fd5b506106126123f5565b005b34801561062057600080fd5b5061063b60048036038101906106369190613f10565b612649565b6040516106489190614a8d565b60405180910390f35b34801561065d57600080fd5b5061067860048036038101906106739190613f10565b612677565b005b34801561068657600080fd5b506106a1600480360381019061069c9190613ebe565b6126ec565b6040516106ae919061486b565b60405180910390f35b3480156106c357600080fd5b506106de60048036038101906106d99190613ebe565b61279f565b6040516106eb9190614819565b60405180910390f35b34801561070057600080fd5b5061071b60048036038101906107169190613f10565b6127fb565b6040516107289190614a8d565b60405180910390f35b61074b60048036038101906107469190613f4c565b612829565b005b34801561075957600080fd5b50610762612b25565b60405161076f9190614a8d565b60405180910390f35b34801561078457600080fd5b5061078d612b2b565b60405161079a9190614819565b60405180910390f35b3480156107af57600080fd5b506107b8612b76565b6040516107c59190614a8d565b60405180910390f35b3480156107da57600080fd5b506107f560048036038101906107f09190613e95565b612b7c565b6040516108029190614b4d565b60405180910390f35b34801561081757600080fd5b50610820612b9c565b60405161082d9190614835565b60405180910390f35b34801561084257600080fd5b5061085d60048036038101906108589190613f10565b612baf565b60405161086a9190614a8d565b60405180910390f35b34801561087f57600080fd5b50610888612bec565b005b34801561089657600080fd5b5061089f612c67565b6040516108ac9190614b32565b60405180910390f35b3480156108c157600080fd5b506108dc60048036038101906108d79190613e95565b612c7d565b6040516108e99190614835565b60405180910390f35b3480156108fe57600080fd5b5061091960048036038101906109149190613f10565b612d2c565b005b34801561092757600080fd5b50610942600480360381019061093d9190613d48565b612da1565b604051610950929190614b09565b60405180910390f35b34801561096557600080fd5b5061096e612dd2565b60405161097b9190614b4d565b60405180910390f35b61099e60048036038101906109999190613f4c565b612de5565b005b3480156109ac57600080fd5b506109b561339e565b6040516109c291906147b3565b60405180910390f35b3480156109d757600080fd5b506109f260048036038101906109ed9190613e95565b6133c4565b6040516109ff9190614835565b60405180910390f35b348015610a1457600080fd5b50610a2f6004803603810190610a2a9190613e95565b6133fd565b604051610a429796959493929190614bc9565b60405180910390f35b348015610a5757600080fd5b50610a726004803603810190610a6d9190613e95565b613486565b005b348015610a8057600080fd5b50610a89613715565b604051610a96919061477d565b60405180910390f35b348015610aab57600080fd5b50610ab4613739565b604051610ac19190614850565b60405180910390f35b60e9544210610b0e576040517f08c379a0000000000000000000000000000000000000000000000000000000008152600401610b0590614a6d565b60405180910390fd5b600034905060008060e2600060048110610b2457fe5b01541115610b685760e2600160048110610b3a57fe5b015460e2600060048110610b4a57fe5b015401610b598360e75461375f565b81610b6057fe5b049050610b6c565b8190505b3460e2600060048110610b7b57fe5b0160008282540192505081905550600060159054906101000a900460ff1660ef60003373ffffffffffffffffffffffffffffffffffffffff1673ffffffffffffffffffffffffffffffffffffffff16815260200190815260200160002060010160006101000a81548160ff021916908360ff1602179055508060e7600082825401925050819055508060ef60003373ffffffffffffffffffffffffffffffffffffffff1673ffffffffffffffffffffffffffffffffffffffff168152602001908152602001600020600001600082825401925050819055505050565b3373ffffffffffffffffffffffffffffffffffffffff1660e660009054906101000a900473ffffffffffffffffffffffffffffffffffffffff1673ffffffffffffffffffffffffffffffffffffffff1614610cb157600080fd5b600060e2600260048110610cc157fe5b015460e2600160048110610cd157fe5b015401905060008060e2600160048110610ce757fe5b0181905550600060e2600260048110610cfc57fe5b018190555060005b60208160ff161015610f37576000848260ff1660208110610d2157fe5b6020020151905060038160ff1610610d3857600080fd5b60028160ff1614610e015760618160ff1660028110610d5357fe5b602002018260ff1660208110610d6557fe5b015460a18260ff1660028110610d7757fe5b602002018360ff1660208110610d8957fe5b01540183019250600082600060159054906101000a900460ff1683604051602001610db693929190614740565b604051602081830303815290604052805190602001209050600260ee600083815260200190815260200160002060006101000a81548160ff021916908360ff16021790555050610f29565b600082600060159054906101000a900460ff1660018403604051602001610e2a93929190614740565b604051602081830303815290604052805190602001209050600083600060159054906101000a900460ff1660028503604051602001610e6b93929190614740565b6040516020818303038152906040528051906020012090506061600160028110610e9157fe5b602002018460ff1660208110610ea357fe5b01546061600060028110610eb357fe5b602002018560ff1660208110610ec557fe5b01540185019450600160ee600084815260200190815260200160002060006101000a81548160ff021916908360ff160217905550600160ee600083815260200190815260200160002060006101000a81548160ff021916908360ff16021790555050505b508080600101915050610d04565b610f4183836137bc565b9250600060648381610f4f57fe5b0490506063810292506000601581819054906101000a900460ff168092919060010191906101000a81548160ff021916908360ff160217905550508060eb600082825401925050819055508360e2600060048110610fa957fe5b01600082825401925050819055508260e2600360048110610fc657fe5b016000828254019250508190555060616000610fe2919061383a565b60a16000610ff0919061383a565b60416000610ffe919061385b565b637735940060e9819055505050505050565b3373ffffffffffffffffffffffffffffffffffffffff1660e660009054906101000a900473ffffffffffffffffffffffffffffffffffffffff1673ffffffffffffffffffffffffffffffffffffffff161461106a57600080fd5b80602190602061107b92919061386e565b5050565b6110876138ae565b6001602080602002604051908101604052809291906000905b82821015611153578382018054600181600116156101000203166002900480601f01602080910402602001604051908101604052809291908181526020018280546001816001161561010002031660029004801561113f5780601f106111145761010080835404028352916020019161113f565b820191906000526020600020905b81548152906001019060200180831161112257829003601f168201915b5050505050815260200190600101906110a0565b50505050905090565b60ec6020528060005260406000206000915090508060000160009054906101000a900460ff16908060000160019054906101000a900460ff16908060000160029054906101000a900460ff16908060000160039054906101000a900473ffffffffffffffffffffffffffffffffffffffff16908060010154908060020154905086565b600060ed600083815260200190815260200160002090504260418260000160019054906101000a900460ff1660ff166020811061121857fe5b01541161125a576040517f08c379a000000000000000000000000000000000000000000000000000000000815260040161125190614a2d565b60405180910390fd5b806002015434101580156112935750600060159054906101000a900460ff1660ff168160000160029054906101000a900460ff1660ff16145b6112d2576040517f08c379a00000000000000000000000000000000000000000000000000000000081526004016112c990614a4d565b60405180910390fd5b6112da6138d6565b8160000160039054906101000a900473ffffffffffffffffffffffffffffffffffffffff16816060019073ffffffffffffffffffffffffffffffffffffffff16908173ffffffffffffffffffffffffffffffffffffffff168152505081600101548160800181815250508160000160019054906101000a900460ff16816020019060ff16908160ff168152505081600201548160a00181815250508160000160009054906101000a900460ff16816000019060ff16908160ff1681525050600060159054906101000a900460ff16816040019060ff16908160ff16815250508060ec600085815260200190815260200160002060008201518160000160006101000a81548160ff021916908360ff16021790555060208201518160000160016101000a81548160ff021916908360ff16021790555060408201518160000160026101000a81548160ff021916908360ff16021790555060608201518160000160036101000a81548173ffffffffffffffffffffffffffffffffffffffff021916908373ffffffffffffffffffffffffffffffffffffffff1602179055506080820151816001015560a08201518160020155905050806060015173ffffffffffffffffffffffffffffffffffffffff16837f45fb11d93899c0a7f976236ddac6734a7deb55c345e3401060c69dc4584b4f85600060159054906101000a900460ff16846000015185602001514287608001518860a0015160405161150296959493929190614c38565b60405180910390a360008060169054906101000a900463ffffffff1642604051602001611530929190614714565b6040516020818303038152906040528051906020012090506115506138d6565b33816060019073ffffffffffffffffffffffffffffffffffffffff16908173ffffffffffffffffffffffffffffffffffffffff168152505083600201548160800181815250506103e88460030154856002015402816115ab57fe5b048160a00181815250508260200151816020019060ff16908160ff16815250508360000160009054906101000a900460ff16600103816000019060ff16908160ff1681525050600060159054906101000a900460ff16816040019060ff16908160ff1681525050806080015184600101540160e260026004811061162b57fe5b016000828254019250508190555082608001516061846000015160ff166002811061165257fe5b60200201846020015160ff166020811061166857fe5b01600082825401925050819055508260a0015160a1846000015160ff166002811061168f57fe5b60200201846020015160ff16602081106116a557fe5b016000828254019250508190555080608001516061826000015160ff16600281106116cc57fe5b60200201826020015160ff16602081106116e257fe5b01600082825401925050819055508060a0015160a1826000015160ff166002811061170957fe5b60200201826020015160ff166020811061171f57fe5b01600082825401925050819055503373ffffffffffffffffffffffffffffffffffffffff16827f45fb11d93899c0a7f976236ddac6734a7deb55c345e3401060c69dc4584b4f85600060159054906101000a900460ff16846000015185602001514287608001518860a0015160405161179d96959493929190614c38565b60405180910390a3662386f26fc10000816080015134031115611808573373ffffffffffffffffffffffffffffffffffffffff166108fc826080015134039081150290604051600060405180830381858888f19350505050158015611806573d6000803e3d6000fd5b505b8060ec600084815260200190815260200160002060008201518160000160006101000a81548160ff021916908360ff16021790555060208201518160000160016101000a81548160ff021916908360ff16021790555060408201518160000160026101000a81548160ff021916908360ff16021790555060608201518160000160036101000a81548173ffffffffffffffffffffffffffffffffffffffff021916908373ffffffffffffffffffffffffffffffffffffffff1602179055506080820151816001015560a082015181600201559050506000601681819054906101000a900463ffffffff168092919060010191906101000a81548163ffffffff021916908363ffffffff1602179055505060ed6000868152602001908152602001600020600080820160006101000a81549060ff02191690556000820160016101000a81549060ff02191690556000820160026101000a81549060ff02191690556000820160036101000a81549073ffffffffffffffffffffffffffffffffffffffff021916905560018201600090556002820160009055600382016000905550505050505050565b6119b861392b565b60216020806020026040519081016040528092919082602080156119f1576020028201915b8154815260200190600101908083116119dd575b5050505050905090565b60218160208110611a0b57600080fd5b016000915090505481565b611a1e61392b565b60618260028110611a2b57fe5b60200201602080602002604051908101604052809291908260208015611a66576020028201915b815481526020019060010190808311611a52575b50505050509050919050565b600060ed600083815260200190815260200160002090503373ffffffffffffffffffffffffffffffffffffffff168160000160039054906101000a900473ffffffffffffffffffffffffffffffffffffffff1673ffffffffffffffffffffffffffffffffffffffff1614611b1b576040517f08c379a0000000000000000000000000000000000000000000000000000000008152600401611b12906149ed565b60405180910390fd5b60008160010154905060ed6000848152602001908152602001600020600080820160006101000a81549060ff02191690556000820160016101000a81549060ff02191690556000820160026101000a81549060ff02191690556000820160036101000a81549073ffffffffffffffffffffffffffffffffffffffff021916905560018201600090556002820160009055600382016000905550503373ffffffffffffffffffffffffffffffffffffffff166108fc829081150290604051600060405180830381858888f19350505050158015611bfb573d6000803e3d6000fd5b50505050565b60ea5481565b60e75481565b60418160208110611c1d57600080fd5b016000915090505481565b60e28160048110611c3857600080fd5b016000915090505481565b600160ef60003373ffffffffffffffffffffffffffffffffffffffff1673ffffffffffffffffffffffffffffffffffffffff16815260200190815260200160002060010160009054906101000a900460ff16600060159054906101000a900460ff160360ff1611611cb357600080fd5b600060e160009054906101000a900473ffffffffffffffffffffffffffffffffffffffff1673ffffffffffffffffffffffffffffffffffffffff166370a08231306040518263ffffffff1660e01b8152600401611d109190614798565b60206040518083038186803b158015611d2857600080fd5b505afa158015611d3c573d6000803e3d6000fd5b505050506040513d601f19601f82011682018060405250810190611d609190613ee7565b9050600060ef60003373ffffffffffffffffffffffffffffffffffffffff1673ffffffffffffffffffffffffffffffffffffffff16815260200190815260200160002060000154603202905081811115611db8578190505b600060159054906101000a900460ff1660ef60003373ffffffffffffffffffffffffffffffffffffffff1673ffffffffffffffffffffffffffffffffffffffff16815260200190815260200160002060010160006101000a81548160ff021916908360ff16021790555060e160009054906101000a900473ffffffffffffffffffffffffffffffffffffffff1673ffffffffffffffffffffffffffffffffffffffff1663a9059cbb33836040518363ffffffff1660e01b8152600401611e7f9291906147ce565b602060405180830381600087803b158015611e9957600080fd5b505af1158015611ead573d6000803e3d6000fd5b505050506040513d601f19601f82011682018060405250810190611ed19190613e6c565b505050565b60008054906101000a900473ffffffffffffffffffffffffffffffffffffffff1673ffffffffffffffffffffffffffffffffffffffff163373ffffffffffffffffffffffffffffffffffffffff1614611f64576040517f08c379a0000000000000000000000000000000000000000000000000000000008152600401611f5b90614a0d565b60405180910390fd5b600060149054906101000a900460ff16611fb3576040517f08c379a0000000000000000000000000000000000000000000000000000000008152600401611faa9061494d565b60405180910390fd5b8060e660006101000a81548173ffffffffffffffffffffffffffffffffffffffff021916908373ffffffffffffffffffffffffffffffffffffffff16021790555060008060146101000a81548160ff02191690831515021790555050565b60eb5481565b3373ffffffffffffffffffffffffffffffffffffffff1660e660009054906101000a900473ffffffffffffffffffffffffffffffffffffffff1673ffffffffffffffffffffffffffffffffffffffff161461207157600080fd5b8060e98190555082604190602061208992919061386e565b5081602190602061209b92919061386e565b508360019060206120ad92919061394e565b5050505050565b60e95442106120f8576040517f08c379a00000000000000000000000000000000000000000000000000000000081526004016120ef90614a6d565b60405180910390fd5b8060ef60003373ffffffffffffffffffffffffffffffffffffffff1673ffffffffffffffffffffffffffffffffffffffff16815260200190815260200160002060000154101561217d576040517f08c379a0000000000000000000000000000000000000000000000000000000008152600401612174906148ad565b60405180910390fd5b600060ef60003373ffffffffffffffffffffffffffffffffffffffff1673ffffffffffffffffffffffffffffffffffffffff16815260200190815260200160002060010160009054906101000a900460ff16600060159054906101000a900460ff160360ff16116121ed57600080fd5b600060e75461221c8360e260016004811061220457fe5b015460e260006004811061221457fe5b01540161375f565b8161222357fe5b04905060e260006004811061223457fe5b0154811115612278576040517f08c379a000000000000000000000000000000000000000000000000000000000815260040161226f9061496d565b60405180910390fd5b8160e7600082825403925050819055508160ef60003373ffffffffffffffffffffffffffffffffffffffff1673ffffffffffffffffffffffffffffffffffffffff168152602001908152602001600020600001600082825403925050819055508060e26000600481106122e757fe5b01600082825403925050819055503373ffffffffffffffffffffffffffffffffffffffff166108fc829081150290604051600060405180830381858888f1935050505015801561233b573d6000803e3d6000fd5b505050565b60008060008060008064e8d4a5100060e260006004811061235d57fe5b01548161236657fe5b04955064e8d4a5100060e260016004811061237d57fe5b01548161238657fe5b04945064e8d4a5100060e260026004811061239d57fe5b0154816123a657fe5b04935064e8d4a5100060e26003600481106123bd57fe5b0154816123c657fe5b04915064e8d4a5100060eb54816123d957fe5b04925064e8d4a5100047816123ea57fe5b049050909192939495565b622dc6c060e95442031161243e576040517f08c379a0000000000000000000000000000000000000000000000000000000008152600401612435906149ad565b60405180910390fd5b600060e260026004811061244e57fe5b015460e260016004811061245e57fe5b0154019050600060e260016004811061247357fe5b0181905550600060e260026004811061248857fe5b018190555060008060009050600091505b60208260ff1610156125dd57600082600060159054906101000a900460ff16836040516020016124cb93929190614740565b604051602081830303815290604052805190602001209050600160ee600083815260200190815260200160002060006101000a81548160ff021916908360ff160217905550600083600060159054906101000a900460ff166001850160405160200161253993929190614740565b604051602081830303815290604052805190602001209050600160ee600083815260200190815260200160002060006101000a81548160ff021916908360ff1602179055506125cc85606160016002811061259057fe5b602002018660ff16602081106125a257fe5b015460616000600281106125b257fe5b602002018760ff16602081106125c457fe5b0154016137bc565b945050508180600101925050612499565b6005600060158282829054906101000a900460ff160192506101000a81548160ff021916908360ff1602179055508260e260006004811061261a57fe5b016000828254019250508190555060616000612636919061383a565b60a16000612644919061383a565b505050565b6061826002811061265957600080fd5b60200201816020811061266b57600080fd5b01600091509150505481565b3373ffffffffffffffffffffffffffffffffffffffff1660e660009054906101000a900473ffffffffffffffffffffffffffffffffffffffff1673ffffffffffffffffffffffffffffffffffffffff16146126d157600080fd5b66038d7ea4c68000820260e8819055508060ea819055505050565b600181602081106126fc57600080fd5b016000915090508054600181600116156101000203166002900480601f0160208091040260200160405190810160405280929190818152602001828054600181600116156101000203166002900480156127975780601f1061276c57610100808354040283529160200191612797565b820191906000526020600020905b81548152906001019060200180831161277a57829003601f168201915b505050505081565b6127a761392b565b60a182600281106127b457fe5b602002016020806020026040519081016040528092919082602080156127ef576020028201915b8154815260200190600101908083116127db575b50505050509050919050565b60a1826002811061280b57600080fd5b60200201816020811061281d57600080fd5b01600091509150505481565b4260418360ff166020811061283a57fe5b01541161287c576040517f08c379a000000000000000000000000000000000000000000000000000000000815260040161287390614a2d565b60405180910390fd5b60008060169054906101000a900463ffffffff16426040516020016128a2929190614714565b6040516020818303038152906040528051906020012090506128c26139a1565b33816060019073ffffffffffffffffffffffffffffffffffffffff16908173ffffffffffffffffffffffffffffffffffffffff16815250503481608001818152505083816020019060ff16908160ff16815250506103e86129298560ff168560ff16612baf565b34028161293257fe5b048160a001818152505082816000019060ff16908160ff16815250506129618460ff168460010360ff16612baf565b8160c0018181525050600060159054906101000a900460ff16816040019060ff16908160ff16815250508060ed600084815260200190815260200160002060008201518160000160006101000a81548160ff021916908360ff16021790555060208201518160000160016101000a81548160ff021916908360ff16021790555060408201518160000160026101000a81548160ff021916908360ff16021790555060608201518160000160036101000a81548173ffffffffffffffffffffffffffffffffffffffff021916908373ffffffffffffffffffffffffffffffffffffffff1602179055506080820151816001015560a0820151816002015560c082015181600301559050506000601681819054906101000a900463ffffffff168092919060010191906101000a81548163ffffffff021916908363ffffffff160217905550503373ffffffffffffffffffffffffffffffffffffffff16827ff1428c68fa4072e7595e799820b9c004004a930e9c9d11b74cc6122168480ac2600060159054906101000a900460ff168685602001514287608001518860a001518960c00151604051612b179796959493929190614c99565b60405180910390a350505050565b60e95481565b612b3361392b565b6041602080602002604051908101604052809291908260208015612b6c576020028201915b815481526020019060010190808311612b58575b5050505050905090565b60e85481565b60ee6020528060005260406000206000915054906101000a900460ff1681565b600060149054906101000a900460ff1681565b60008060218460208110612bbf57fe5b015490506001831415612be257605a81605a01620f424081612bdd57fe5b040390505b8091505092915050565b600060eb549050600060eb8190555060e660009054906101000a900473ffffffffffffffffffffffffffffffffffffffff1673ffffffffffffffffffffffffffffffffffffffff166108fc829081150290604051600060405180830381858888f19350505050158015612c63573d6000803e3d6000fd5b5050565b600060169054906101000a900463ffffffff1681565b60008060ec6000848152602001908152602001600020905060008160000160019054906101000a900460ff168260000160029054906101000a900460ff168360000160009054906101000a900460ff16604051602001612cdf93929190614740565b60405160208183030381529060405280519060200120905060008060ee600084815260200190815260200160002060009054906101000a900460ff1660ff16119050809350505050919050565b3373ffffffffffffffffffffffffffffffffffffffff1660e660009054906101000a900473ffffffffffffffffffffffffffffffffffffffff1673ffffffffffffffffffffffffffffffffffffffff1614612d8657600080fd5b66038d7ea4c68000820260e8819055508060ea819055505050565b60ef6020528060005260406000206000915090508060000154908060010160009054906101000a900460ff16905082565b600060159054906101000a900460ff1681565b60e854341015612e2a576040517f08c379a0000000000000000000000000000000000000000000000000000000008152600401612e219061490d565b60405180910390fd5b4260418360ff1660208110612e3b57fe5b015411612e7d576040517f08c379a0000000000000000000000000000000000000000000000000000000008152600401612e74906148cd565b60405180910390fd5b600060618260010360ff1660028110612e9257fe5b602002018360ff1660208110612ea457fe5b015460a18360ff1660028110612eb657fe5b602002018460ff1660208110612ec857fe5b0154039050600060618360ff1660028110612edf57fe5b602002018460ff1660208110612ef157fe5b015460a18460010360ff1660028110612f0657fe5b602002018560ff1660208110612f1857fe5b015403905060006103e8612f328660ff168660ff16612baf565b340281612f3b57fe5b0490506000612f4a8484613812565b612f5b858401853460000301613812565b03905060ea5460e2600160048110612f6f57fe5b015460e2600060048110612f7f57fe5b01540181612f8957fe5b0484830112612fcd576040517f08c379a0000000000000000000000000000000000000000000000000000000008152600401612fc49061492d565b60405180910390fd5b60e2600060048110612fdb57fe5b015481131561301f576040517f08c379a00000000000000000000000000000000000000000000000000000000081526004016130169061498d565b60405180910390fd5b60008060169054906101000a900463ffffffff1642604051602001613045929190614714565b6040516020818303038152906040528051906020012090506130656138d6565b33816060019073ffffffffffffffffffffffffffffffffffffffff16908173ffffffffffffffffffffffffffffffffffffffff168152505034816080018181525050838160a001818152505086816000019060ff16908160ff168152505087816020019060ff16908160ff1681525050600060159054906101000a900460ff16816040019060ff16908160ff16815250508060ec600084815260200190815260200160002060008201518160000160006101000a81548160ff021916908360ff16021790555060208201518160000160016101000a81548160ff021916908360ff16021790555060408201518160000160026101000a81548160ff021916908360ff16021790555060608201518160000160036101000a81548173ffffffffffffffffffffffffffffffffffffffff021916908373ffffffffffffffffffffffffffffffffffffffff1602179055506080820151816001015560a082015181600201559050503460e26002600481106131da57fe5b016000828254019250508190555060008312156132455761320d60e260016004811061320257fe5b0154846000036137bc565b60e260016004811061321b57fe5b01819055508260000360e260006004811061323257fe5b016000828254019250508190555061328f565b8260e260016004811061325457fe5b016000828254019250508190555061327b60e260006004811061327357fe5b0154846137bc565b60e260006004811061328957fe5b01819055505b3460618860ff16600281106132a057fe5b602002018960ff16602081106132b257fe5b01600082825401925050819055508360a18860ff16600281106132d157fe5b602002018960ff16602081106132e357fe5b01600082825401925050819055506000601681819054906101000a900463ffffffff168092919060010191906101000a81548163ffffffff021916908363ffffffff160217905550503373ffffffffffffffffffffffffffffffffffffffff16827f45fb11d93899c0a7f976236ddac6734a7deb55c345e3401060c69dc4584b4f85600060159054906101000a900460ff168a8c42348b60405161338c96959493929190614c38565b60405180910390a35050505050505050565b60e660009054906101000a900473ffffffffffffffffffffffffffffffffffffffff1681565b600080600060ed600085815260200190815260200160002060000160029054906101000a900460ff1660ff161415905080915050919050565b60ed6020528060005260406000206000915090508060000160009054906101000a900460ff16908060000160019054906101000a900460ff16908060000160029054906101000a900460ff16908060000160039054906101000a900473ffffffffffffffffffffffffffffffffffffffff16908060010154908060020154908060030154905087565b600060ec600083815260200190815260200160002090503373ffffffffffffffffffffffffffffffffffffffff168160000160039054906101000a900473ffffffffffffffffffffffffffffffffffffffff1673ffffffffffffffffffffffffffffffffffffffff161461352f576040517f08c379a00000000000000000000000000000000000000000000000000000000081526004016135269061488d565b60405180910390fd5b60008160000160009054906101000a900460ff16905060008260000160019054906101000a900460ff16905060008360000160029054906101000a900460ff169050600082828560405160200161358893929190614740565b604051602081830303815290604052805190602001209050600060ee600083815260200190815260200160002060009054906101000a900460ff1660ff16905060008114156135d657600080fd5b60008660010154905060028214156135f2578660020154810190505b606460638202816135ff57fe5b04905060e260036004811061361057fe5b015481111561361e57600080fd5b8060e260036004811061362d57fe5b016000828254039250508190555060ec6000898152602001908152602001600020600080820160006101000a81549060ff02191690556000820160016101000a81549060ff02191690556000820160026101000a81549060ff02191690556000820160036101000a81549073ffffffffffffffffffffffffffffffffffffffff02191690556001820160009055600282016000905550503373ffffffffffffffffffffffffffffffffffffffff166108fc829081150290604051600060405180830381858888f1935050505015801561370a573d6000803e3d6000fd5b505050505050505050565b60008054906101000a900473ffffffffffffffffffffffffffffffffffffffff1681565b60e160009054906101000a900473ffffffffffffffffffffffffffffffffffffffff1681565b60008082840290508284828161377157fe5b04146137b2576040517f08c379a00000000000000000000000000000000000000000000000000000000081526004016137a9906148ed565b60405180910390fd5b8091505092915050565b600082821115613801576040517f08c379a00000000000000000000000000000000000000000000000000000000081526004016137f8906149cd565b60405180910390fd5b600082840390508091505092915050565b600080839050828413613823578290505b6000811361383057600090505b8091505092915050565b5060008181613849919061385b565b506020016000613859919061385b565b565b50806020019061386b91906139fd565b50565b826020810192821561389d579160200282015b8281111561389c578251825591602001919060010190613881565b5b5090506138aa91906139fd565b5090565b6040518061040001604052806020905b60608152602001906001900390816138be5790505090565b6040518060c00160405280600060ff168152602001600060ff168152602001600060ff168152602001600073ffffffffffffffffffffffffffffffffffffffff16815260200160008152602001600081525090565b604051806104000160405280602090602082028036833780820191505090505090565b8260208101928215613990579160200282015b8281111561398f57825182908051906020019061397f929190613a1a565b5091602001919060010190613961565b5b50905061399d9190613aa8565b5090565b6040518060e00160405280600060ff168152602001600060ff168152602001600060ff168152602001600073ffffffffffffffffffffffffffffffffffffffff1681526020016000815260200160008152602001600081525090565b5b80821115613a165760008160009055506001016139fe565b5090565b828054600181600116156101000203166002900490600052602060002090601f016020900481019282613a505760008555613a97565b82601f10613a6957805160ff1916838001178555613a97565b82800160010185558215613a97579182015b82811115613a96578251825591602001919060010190613a7b565b5b509050613aa491906139fd565b5090565b5b80821115613ac85760008181613abf9190613acc565b50600101613aa9565b5090565b50805460018160011615610100020316600290046000825580601f10613af25750613b11565b601f016020900490600052602060002090810190613b1091906139fd565b5b50565b600081359050613b2381614fda565b92915050565b600081359050613b3881614ff1565b92915050565b600082601f830112613b4f57600080fd5b6020613b62613b5d82614d39565b614d08565b9150818360005b83811015613b995781358601613b7f8882613cb5565b845260208401935060208301925050600181019050613b69565b5050505092915050565b600082601f830112613bb457600080fd5b6020613bc7613bc282614d5f565b614d08565b91508183856020840282011115613bdd57600080fd5b60005b83811015613c0d5781613bf38882613d09565b845260208401935060208301925050600181019050613be0565b5050505092915050565b600082601f830112613c2857600080fd5b6020613c3b613c3682614d85565b614d08565b91508183856020840282011115613c5157600080fd5b60005b83811015613c815781613c678882613d33565b845260208401935060208301925050600181019050613c54565b5050505092915050565b600081519050613c9a81615008565b92915050565b600081359050613caf8161501f565b92915050565b600082601f830112613cc657600080fd5b8135613cd9613cd482614dab565b614d08565b91508082526020830160208301858383011115613cf557600080fd5b613d00838284614f3d565b50505092915050565b600081359050613d1881615036565b92915050565b600081519050613d2d81615036565b92915050565b600081359050613d428161504d565b92915050565b600060208284031215613d5a57600080fd5b6000613d6884828501613b14565b91505092915050565b600060208284031215613d8357600080fd5b6000613d9184828501613b29565b91505092915050565b6000806000806108408587031215613db157600080fd5b600085013567ffffffffffffffff811115613dcb57600080fd5b613dd787828801613b3e565b9450506020613de887828801613ba3565b935050610420613dfa87828801613ba3565b925050610820613e0c87828801613d09565b91505092959194509250565b60006104008284031215613e2b57600080fd5b6000613e3984828501613ba3565b91505092915050565b60006104008284031215613e5557600080fd5b6000613e6384828501613c17565b91505092915050565b600060208284031215613e7e57600080fd5b6000613e8c84828501613c8b565b91505092915050565b600060208284031215613ea757600080fd5b6000613eb584828501613ca0565b91505092915050565b600060208284031215613ed057600080fd5b6000613ede84828501613d09565b91505092915050565b600060208284031215613ef957600080fd5b6000613f0784828501613d1e565b91505092915050565b60008060408385031215613f2357600080fd5b6000613f3185828601613d09565b9250506020613f4285828601613d09565b9150509250929050565b60008060408385031215613f5f57600080fd5b6000613f6d85828601613d33565b9250506020613f7e85828601613d33565b9150509250929050565b6000613f9483836140cb565b905092915050565b6000613fa88383614693565b60208301905092915050565b613fbd81614ee3565b82525050565b613fcc81614e74565b82525050565b613fdb81614e62565b82525050565b6000613fec82614def565b613ff68185614e2a565b93508360208202850161400885614ddb565b8060005b8581101561404457848403895281516140258582613f88565b945061403083614e10565b925060208a0199505060018101905061400c565b50829750879550505050505092915050565b61405f81614dfa565b6140698184614e35565b925061407482614de5565b8060005b838110156140a557815161408c8782613f9c565b965061409783614e1d565b925050600181019050614078565b505050505050565b6140b681614e86565b82525050565b6140c581614ef5565b82525050565b60006140d682614e05565b6140e08185614e40565b93506140f0818560208601614f4c565b6140f981614faf565b840191505092915050565b600061410f82614e05565b6141198185614e51565b9350614129818560208601614f4c565b61413281614faf565b840191505092915050565b600061414a602b83614e51565b91507f63616e206f6e6c792072656465656d20626574732066726f6d206f776e65722060008301527f6f662074686174206265740000000000000000000000000000000000000000006020830152604082019050919050565b60006141b0602383614e51565b91507f7573657220646f6573206e6f7420686176652074686973206d616e792073686160008301527f72657300000000000000000000000000000000000000000000000000000000006020830152604082019050919050565b6000614216602083614e51565b91507f67616d652073746172746564206f72207465616d206e6f7420706c6179696e676000830152602082019050919050565b6000614256601783614e51565b91507f6d756c7469706c69636174696f6e206f766572666c6f770000000000000000006000830152602082019050919050565b6000614296601183614e51565b91507f6265742062656c6f77206d696e696d756d0000000000000000000000000000006000830152602082019050919050565b60006142d6602383614e51565b91507f62657473697a65206f766572204c5020636f6e63656e74726174696f6e206c6960008301527f6d697400000000000000000000000000000000000000000000000000000000006020830152604082019050919050565b600061433c601d83614e51565b91507f4f7261636c65204164647265737320697320616c7265616479205365740000006000830152602082019050919050565b600061437c602383614e51565b91507f63616e206f6e6c7920776974686472617720756e706c6564676564206361706960008301527f74616c00000000000000000000000000000000000000000000000000000000006020830152604082019050919050565b60006143e2602183614e51565b91507f62657473697a65206f766572204c5020756e706c65646765642063617069746160008301527f6c000000000000000000000000000000000000000000000000000000000000006020830152604082019050919050565b6000614448602883614e51565b91507f656d657267656e6379206d6574686f6420666f7220756e617474656e6465642060008301527f636f6e74726163740000000000000000000000000000000000000000000000006020830152604082019050919050565b60006144ae601e83614e51565b91507f7375627472616374696f6e20756e646572666c6f77206f6e2075696e747300006000830152602082019050919050565b60006144ee601383614e51565b91507f6e6f7420796f75727320746f2063616e63656c000000000000000000000000006000830152602082019050919050565b600061452e602583614e51565b91507f4f6e6c792041646d696e2043616e20506572666f726d2054686973204f70657260008301527f6174696f6e0000000000000000000000000000000000000000000000000000006020830152604082019050919050565b6000614594600c83614e51565b91507f67616d65207374617274656400000000000000000000000000000000000000006000830152602082019050919050565b60006145d4603383614e51565b91507f696e73756666696369656e742065746820666f722062657473697a65206f722060008301527f62657420666f72207072696f722065706f6368000000000000000000000000006020830152604082019050919050565b600061463a602183614e51565b91507f6e6f74206265747765656e2067616d6520737461727420616e6420736574746c60008301527f65000000000000000000000000000000000000000000000000000000000000006020830152604082019050919050565b61469c81614ebc565b82525050565b6146ab81614ebc565b82525050565b6146c26146bd82614ebc565b614f7f565b82525050565b6146d181614ec6565b82525050565b6146e86146e382614ec6565b614f89565b82525050565b6146f781614ed6565b82525050565b61470e61470982614ed6565b614f9b565b82525050565b600061472082856146d7565b60048201915061473082846146b1565b6020820191508190509392505050565b600061474c82866146fd565b60018201915061475c82856146fd565b60018201915061476c82846146fd565b600182019150819050949350505050565b60006020820190506147926000830184613fd2565b92915050565b60006020820190506147ad6000830184613fb4565b92915050565b60006020820190506147c86000830184613fc3565b92915050565b60006040820190506147e36000830185613fb4565b6147f060208301846146a2565b9392505050565b600060208201905081810360008301526148118184613fe1565b905092915050565b60006104008201905061482f6000830184614056565b92915050565b600060208201905061484a60008301846140ad565b92915050565b600060208201905061486560008301846140bc565b92915050565b600060208201905081810360008301526148858184614104565b905092915050565b600060208201905081810360008301526148a68161413d565b9050919050565b600060208201905081810360008301526148c6816141a3565b9050919050565b600060208201905081810360008301526148e681614209565b9050919050565b6000602082019050818103600083015261490681614249565b9050919050565b6000602082019050818103600083015261492681614289565b9050919050565b60006020820190508181036000830152614946816142c9565b9050919050565b600060208201905081810360008301526149668161432f565b9050919050565b600060208201905081810360008301526149868161436f565b9050919050565b600060208201905081810360008301526149a6816143d5565b9050919050565b600060208201905081810360008301526149c68161443b565b9050919050565b600060208201905081810360008301526149e6816144a1565b9050919050565b60006020820190508181036000830152614a06816144e1565b9050919050565b60006020820190508181036000830152614a2681614521565b9050919050565b60006020820190508181036000830152614a4681614587565b9050919050565b60006020820190508181036000830152614a66816145c7565b9050919050565b60006020820190508181036000830152614a868161462d565b9050919050565b6000602082019050614aa260008301846146a2565b92915050565b600060c082019050614abd60008301896146a2565b614aca60208301886146a2565b614ad760408301876146a2565b614ae460608301866146a2565b614af160808301856146a2565b614afe60a08301846146a2565b979650505050505050565b6000604082019050614b1e60008301856146a2565b614b2b60208301846146ee565b9392505050565b6000602082019050614b4760008301846146c8565b92915050565b6000602082019050614b6260008301846146ee565b92915050565b600060c082019050614b7d60008301896146ee565b614b8a60208301886146ee565b614b9760408301876146ee565b614ba46060830186613fd2565b614bb160808301856146a2565b614bbe60a08301846146a2565b979650505050505050565b600060e082019050614bde600083018a6146ee565b614beb60208301896146ee565b614bf860408301886146ee565b614c056060830187613fd2565b614c1260808301866146a2565b614c1f60a08301856146a2565b614c2c60c08301846146a2565b98975050505050505050565b600060c082019050614c4d60008301896146ee565b614c5a60208301886146ee565b614c6760408301876146ee565b614c7460608301866146a2565b614c8160808301856146a2565b614c8e60a08301846146a2565b979650505050505050565b600060e082019050614cae600083018a6146ee565b614cbb60208301896146ee565b614cc860408301886146ee565b614cd560608301876146a2565b614ce260808301866146a2565b614cef60a08301856146a2565b614cfc60c08301846146a2565b98975050505050505050565b6000604051905081810181811067ffffffffffffffff82111715614d2f57614d2e614fad565b5b8060405250919050565b600067ffffffffffffffff821115614d5457614d53614fad565b5b602082029050919050565b600067ffffffffffffffff821115614d7a57614d79614fad565b5b602082029050919050565b600067ffffffffffffffff821115614da057614d9f614fad565b5b602082029050919050565b600067ffffffffffffffff821115614dc657614dc5614fad565b5b601f19601f8301169050602081019050919050565b6000819050919050565b6000819050919050565b600060209050919050565b600060209050919050565b600081519050919050565b6000602082019050919050565b6000602082019050919050565b600081905092915050565b600081905092915050565b600082825260208201905092915050565b600082825260208201905092915050565b6000614e6d82614e9c565b9050919050565b6000614e7f82614e9c565b9050919050565b60008115159050919050565b6000819050919050565b600073ffffffffffffffffffffffffffffffffffffffff82169050919050565b6000819050919050565b600063ffffffff82169050919050565b600060ff82169050919050565b6000614eee82614f19565b9050919050565b6000614f0082614f07565b9050919050565b6000614f1282614e9c565b9050919050565b6000614f2482614f2b565b9050919050565b6000614f3682614e9c565b9050919050565b82818337600083830152505050565b60005b83811015614f6a578082015181840152602081019050614f4f565b83811115614f79576000848401525b50505050565b6000819050919050565b6000614f9482614fc0565b9050919050565b6000614fa682614fcd565b9050919050565bfe5b6000601f19601f8301169050919050565b60008160e01b9050919050565b60008160f81b9050919050565b614fe381614e62565b8114614fee57600080fd5b50565b614ffa81614e74565b811461500557600080fd5b50565b61501181614e86565b811461501c57600080fd5b50565b61502881614e92565b811461503357600080fd5b50565b61503f81614ebc565b811461504a57600080fd5b50565b61505681614ed6565b811461506157600080fd5b5056fea2646970667358221220d40f691ff0f22f56393b94b050d8769e2f12bd212eb69a26c0e4b30eb2d2789a64736f6c63430007040033",
  "immutableReferences": {},
  "source": "pragma solidity ^0.7.4;\r\npragma experimental ABIEncoderV2;\r\n\r\nimport \"./Token.sol\";\r\n\r\n/**\r\nSPDX-License-Identifier: MIT\r\nCopyright  2020 Eric G. Falkenstein\r\n\r\nPermission is hereby granted, free of charge, to any person\r\nobtaining a copy of this software and associated documentation\r\nfiles (the \"Software\"), to deal in the Software without restriction,\r\nincluding without limitation the rights to use, copy, modify, merge,\r\npublish, distribute, sublicense, andor sell copies of the Software,\r\nand to permit persons to whom the Software is furnished to do so,\r\nsubject to the following conditions:\r\n\r\nThe above copyright notice and this permission notice shall be\r\nincluded in all copies or substantial portions of the Software.\r\n\r\nTHE SOFTWARE IS PROVIDED \"AS IS\", WITHOUT WARRANTY OF ANY KIND,\r\nEXPRESS OR IMPLIED, INCLUDING BUT NOT LIMITED TO THE WARRANTIES\r\nOF MERCHANTABILITY, FITNESS FOR A PARTICULAR PURPOSE AND\r\nNONINFRINGEMENT. IN NO EVENT SHALL THE AUTHORS OR COPYRIGHT\r\nHOLDERS BE LIABLE FOR ANY CLAIM, DAMAGES OR OTHER LIABILITY,\r\nWHETHER IN AN ACTION OF CONTRACT, TORT OR OTHERWISE, ARISING\r\nFROM, OUT OF OR IN CONNECTION WITH THE SOFTWARE OR THE USE\r\nOR OTHER DEALINGS IN THE SOFTWARE.\r\n*/\r\n\r\ncontract Betting {\r\n    address public admin;\r\n    bool public adminPower;\r\n\r\n    constructor(address payable tBAddress) {\r\n        // constructor() {\r\n        minBet = 1e15;\r\n        concentrationLimit = 5;\r\n        betEpoch = 1;\r\n        token = Token(tBAddress);\r\n        // oracleAdmin = payable(\r\n        //     address(new Oracle(payable(address(this)), tBAddress))\r\n        // );\r\n        admin = msg.sender;\r\n        adminPower = true;\r\n    }\r\n\r\n    function setOracleAddress(address payable _oracleAddress) public {\r\n        require(msg.sender == admin, \"Only Admin Can Perform This Operation\");\r\n        require(adminPower, \"Oracle Address is already Set\");\r\n        oracleAdmin = _oracleAddress;\r\n        adminPower = false;\r\n    }\r\n\r\n    // after each settlement, a new epoch commences. Bets cannot consummate on games referring to prior epochs\r\n    uint8 public betEpoch;\r\n    // this counter is used to make bet IDs unique\r\n    uint32 public nonce;\r\n    // Schedule is a string where Sport:homeTeam:awayTeam\r\n    // eg, \"NFL:Minnesota:Chicago\"\r\n    string[32] public teamSchedule;\r\n    // odds are entered as decimal odds, such that 1.909 is 909, and 2.543 is 1543.   (decOdds/1000+1) is the total payoff for a winning bet,\r\n    // consisting of a profit of decOdds/1000 and a return of the bet.\r\n    uint256[32] public decOdds;\r\n    // startTime in UTC is used to stop active betting. If a game is postponed, it may be updated. No bets are taken after this time.\r\n    uint256[32] public startTime;\r\n    // this is the amount bet on each team to win, and so via the schedule. A 'short' would be on the opponent to win.\r\n    uint256[32][2] public betLong;\r\n    // this is the amount payable to bettors by the contract should their pick win. It is used to determine how much to set\r\n    // aside for future redemptions at settle.\r\n    uint256[32][2] public betPayout;\r\n    // the tokens sent to the contract initially are for distribution to liquidity providers at the end of the season.\r\n    // Linking to the token contract allows this contract to distribute those shares. No shares are deposited in this contract.\r\n    // tokens claimed go straight to the liquidity provider (LP) account.\r\n    Token public token;\r\n    // 0 LP unused capital, 1 LP used Capital, 2 bettor capital, 3 eth reserved for redepmption by bettors\r\n    // margins 1 and 2 are zeroed out each settlement, and adjusted when betting commences\r\n    uint256[4] public margin;\r\n    // this is the only ethereum account that can adjust parameters, set odds, schedule, etc. There is no other party with access to\r\n    // methods that affect payouts\r\n    address payable public oracleAdmin;\r\n    // totalShares is used to monitor an LP's share of LP eth in the contract. These are not tokens, they are just used for internal\r\n    // accounting of the LP's percent ownership of the vig implied by the odds.\r\n    uint256 public totalShares;\r\n    // this is a parameter for a minimum bet, which can be adjusted by the oracle/admin.\r\n    uint256 public minBet;\r\n    // this is used to stop LP funding, because once a game starts, the unused capital account could be worth zero or double\r\n    // based on what happened in the game, and LPs would have an incentive to zero-out of invest too much\r\n    uint256 public earliestStart;\r\n    // this is a parameter for a maximum bet exposure. If LP capital is X, X/concentrationLimit is the largest absolute net\r\n    // exposure for any game. At that point, only bets decreasing the LP exposure are permitted. This prevents a situation where\r\n    // one game uses up all the LP capital for a epoch. It should be adjusted during the playoff, as the number of games will\r\n    // obviously decrease\r\n    uint256 public concentrationLimit;\r\n    // this keeps record of the eth apportioned to the Oracle/Admin. The oracle token holders can pull this over to the oracle contract\r\n    // at any time, as it cannot be accessed by any other party\r\n    uint256 public oracleBalance;\r\n    // this struct holds each bettor's bet contract parameters\r\n    mapping(bytes32 => Subcontract) public subcontracts;\r\n    // this struct holds a big bet's bet parameters, its contractID will become the offeror's bet ID if taken\r\n    // if taken, the offercontract is deleted\r\n    mapping(bytes32 => Offercontract) public offercontracts;\r\n    // this maps the hash of (team number, epoch) to that team/epoch's outcome, where 0 is a loss, 1 is a tie or postponement, 2 a win\r\n    // The outcome defaults to 0, so that initially, when contract epoch = current epoch, all games are 0, When the contract epoch< current epoch,\r\n    // 0 represents a loss\r\n    mapping(bytes32 => uint8) public pickEpochResult;\r\n    // This keeps track of an LP's ownership in the LP ether capital, and also its date of investment to encourage vesting for\r\n    // claiming tokens\r\n    mapping(address => LPStruct) public lpStruct;\r\n\r\n    struct Subcontract {\r\n        uint8 pick;\r\n        uint8 matchNum;\r\n        uint8 epoch;\r\n        address bettor;\r\n        uint256 betAmount;\r\n        // the payoff is betAmount * odds/1000, a winning bet gets back its betAmount + payoff\r\n        uint256 payoff;\r\n    }\r\n\r\n    struct Offercontract {\r\n        uint8 pick;\r\n        uint8 matchNum;\r\n        uint8 epoch;\r\n        address bettor;\r\n        uint256 betAmount;\r\n        // the payoff here is for the one placing the offer, so if Odds are 909, its payoff is betAmount * 909/1000\r\n        // given the way the opposite side's odds are calculated, this payoff then is equivalent to the bet amount\r\n        // offered to the opponent. In this way we can be certain no LP capital is needed to collateralize the bet.\r\n        uint256 payoff;\r\n        // these are the odds offered for the opponent of the \"pick\" above, which is the offeror's team\r\n        uint256 oddsOffered;\r\n    }\r\n\r\n    struct LPStruct {\r\n        uint256 shares;\r\n        uint8 epoch;\r\n    }\r\n\r\n    event BetRecord(\r\n        bytes32 indexed contractHash,\r\n        address indexed bettor,\r\n        uint8 epoch,\r\n        uint8 pick,\r\n        uint8 matchnum,\r\n        uint256 timestamp,\r\n        uint256 betsize,\r\n        uint256 payoff\r\n    );\r\n\r\n    event BetBigRecord(\r\n        bytes32 indexed contractHash,\r\n        address indexed bettor,\r\n        uint8 epoch,\r\n        uint8 pick,\r\n        uint8 matchnum,\r\n        uint256 timestamp,\r\n        uint256 betsize,\r\n        uint256 payoff,\r\n        uint256 oddsOffered\r\n    );\r\n\r\n    modifier onlyAdmin() {\r\n        require(oracleAdmin == msg.sender);\r\n        _;\r\n    }\r\n\r\n    function fundBook() external payable {\r\n        // not allowed when games are played because that game results affect the value of 'house' shares\r\n        // not reflected in the house eth value, so when games start, no LP withdrawal or funding is _allowed\r\n        // at settlement 'earliestStart' is set to 2e9, which is well into the future, so LPs can WD or fund again\r\n        require(\r\n            block.timestamp < earliestStart,\r\n            \"not between game start and settle\"\r\n        );\r\n        uint256 netinvestment = msg.value;\r\n        uint256 _shares = 0;\r\n        if (margin[0] > 0) {\r\n            // investors receive shares marked at fair value, the current shares/eth ratio for all\r\n            // LP's eth in the book is the sum of pledged, margin[1], and unpledged, margin[0], eth\r\n            _shares = mul(netinvestment, totalShares) / (margin[0] + margin[1]);\r\n        } else {\r\n            _shares = netinvestment;\r\n        }\r\n        margin[0] += msg.value;\r\n        // adding funds to an account resets the 'start date' relevant for withdrawal and claiming tokens\r\n        lpStruct[msg.sender].epoch = betEpoch;\r\n        totalShares += _shares;\r\n        lpStruct[msg.sender].shares += _shares;\r\n    }\r\n\r\n    receive() external payable {}\r\n\r\n    function withdrawBook(uint256 sharesToSell) external {\r\n        // same reason as given above in fundBook\r\n        require(\r\n            block.timestamp < earliestStart,\r\n            \"not between game start and settle\"\r\n        );\r\n        require(\r\n            lpStruct[msg.sender].shares >= sharesToSell,\r\n            \"user does not have this many shares\"\r\n        );\r\n        // investors can only cashout after investing for at least 3 epochs, this allows LPs to better anticipate the\r\n        // economics of investing as an LP\r\n        require(betEpoch - lpStruct[msg.sender].epoch > 0);\r\n        // margin[0] + margin[1] is the total eth amount of the LPs\r\n        uint256 ethTrans =\r\n            mul(sharesToSell, (margin[0] + margin[1])) / totalShares;\r\n        // one can withdraw at any time during the epoch, but only if the LP eth balances that are\r\n        // unpledged, or free, and not acting as collateral\r\n        require(ethTrans <= margin[0], \"can only withdraw unpledged capital\");\r\n        totalShares -= sharesToSell;\r\n        lpStruct[msg.sender].shares -= sharesToSell;\r\n        margin[0] -= ethTrans;\r\n        payable(msg.sender).transfer(ethTrans);\r\n    }\r\n\r\n    function claimTokens() external {\r\n        // This is a bonus for initial LPs\r\n        // can start claiming the 1 million tokens in this contract, with 400 tokens per eth deposited\r\n        // only those who have been LPs for 3 epochs are allowed to claim tokens\r\n        // LPs can claim this bonus more than once if no other LPs arise\r\n        require(betEpoch - lpStruct[msg.sender].epoch > 1);\r\n        uint256 contractTokens = token.balanceOf(address(this));\r\n        uint256 tokenTrans = 50 * lpStruct[msg.sender].shares;\r\n        if (tokenTrans > contractTokens) {\r\n            tokenTrans = contractTokens;\r\n        }\r\n        // the LP is reset at the current epoch, so no need to withdraw and\r\n        // deposit to get in line for the next distribution\r\n        lpStruct[msg.sender].epoch = betEpoch;\r\n        token.transfer(msg.sender, tokenTrans);\r\n    }\r\n\r\n    function betTokens(uint256 _minbet, uint256 _maxPos) external onlyAdmin {\r\n        minBet = _minbet * 1e15;\r\n        concentrationLimit = _maxPos;\r\n    }\r\n\r\n    function adjustParams(uint256 _minbet, uint256 _maxPos) external onlyAdmin {\r\n        minBet = _minbet * 1e15;\r\n        concentrationLimit = _maxPos;\r\n    }\r\n\r\n    function withdrawOracle() external {\r\n        uint256 amt = oracleBalance;\r\n        oracleBalance = 0;\r\n        oracleAdmin.transfer(amt);\r\n    }\r\n\r\n    function bet(uint8 matchNumber, uint8 pickLong) external payable {\r\n        require(msg.value >= minBet, \"bet below minimum\");\r\n        require(\r\n            startTime[matchNumber] > block.timestamp,\r\n            \"game started or team not playing\"\r\n        );\r\n        // current LP exposure if team/player wins, which is the net of the LP obligation to the winner minus\r\n        // the amount bet on the opponent that will be available to the LPs\r\n        // note for arrays, the arguments are [team][match], where team is either 0 or 1, and matches run from 0 to 31\r\n        int256 netPosTeam0 =\r\n            int256(betPayout[pickLong][matchNumber]) -\r\n                int256(betLong[1 - pickLong][matchNumber]);\r\n        // current liability of LP if opponent team loses\r\n        int256 netPosOpponent0 =\r\n            int256(betPayout[1 - pickLong][matchNumber]) -\r\n                int256(betLong[pickLong][matchNumber]);\r\n        // this is the incremental, stand-alone liability from taking this bet, how much the LP's lose if this bet wins\r\n        uint256 _payoff = (msg.value * odds(matchNumber, pickLong)) / 1000;\r\n        // this function measures the change in the net liability from this bet, which is a function of how\r\n        // much it changes the maximum liability for this match\r\n        int256 marginChange =\r\n            maxZero(\r\n                int256(_payoff) + netPosTeam0,\r\n                -int256(msg.value) + netPosOpponent0\r\n            ) - maxZero(netPosTeam0, netPosOpponent0);\r\n        // this checks to see that exposure on this one game is not too large\r\n        // relative to the amount of LP eth in the contract\r\n        require(\r\n            int256(_payoff) + netPosTeam0 <\r\n                int256((margin[0] + margin[1]) / concentrationLimit),\r\n            \"betsize over LP concentration limit\"\r\n        );\r\n        // this  requires the LP has enough unpledged capital to cover the new bet\r\n        require(\r\n            marginChange <= int256(margin[0]),\r\n            \"betsize over LP unpledged capital\"\r\n        );\r\n        // an incrementing nonce and timestamp make a unique bet hash ID\r\n        bytes32 subkID = keccak256(abi.encodePacked(nonce, block.timestamp));\r\n        Subcontract memory order;\r\n        order.bettor = msg.sender;\r\n        order.betAmount = msg.value;\r\n        order.payoff = _payoff;\r\n        order.pick = pickLong;\r\n        order.matchNum = matchNumber;\r\n        order.epoch = betEpoch;\r\n        subcontracts[subkID] = order;\r\n        // the bettor's eth is put into the bettor capital pot. This will be added to the LP's capital pot for\r\n        // extracting payout amounts\r\n        margin[2] += msg.value;\r\n        // if the bet decreases net LP exposure to that game, eth moves from the LP's pledged capital, margin[1]\r\n        // to the unpledged capital, margin[0]\r\n        if (marginChange < 0) {\r\n            margin[1] = sub(margin[1], uint256(-marginChange));\r\n            margin[0] += uint256(-marginChange);\r\n            // if the bet increases net LP exposure to that game, eth moves from unpledged capital\r\n            // to the LP pledged capital from the unpledged capital\r\n        } else {\r\n            margin[1] += uint256(marginChange);\r\n            margin[0] = sub(margin[0], uint256(marginChange));\r\n        }\r\n        // bet adds to the amount bet on team\r\n        betLong[pickLong][matchNumber] += msg.value;\r\n        // the payoff, or profit, paid by the LPs to the bettor if his team wins.\r\n        // it is not paid in the case of a tie\r\n        betPayout[pickLong][matchNumber] += _payoff;\r\n        // increment nonce for subkID uniqueness\r\n        nonce++;\r\n        emit BetRecord(\r\n            subkID,\r\n            msg.sender,\r\n            betEpoch,\r\n            pickLong,\r\n            matchNumber,\r\n            block.timestamp,\r\n            msg.value,\r\n            _payoff\r\n        );\r\n    }\r\n\r\n    // this method warehouses bets too large for the current book. They can be placed in hopes of finding another whale\r\n    // they can be cancelled and funds fully refunded at any time if not taken.\r\n    // If the epoch passes, the bet will not be available for takers, so the offeror should redeem it,\r\n    //  this is possible at any time (there is no mechanism that pulls unclaimed eth at a later time to other parties)\r\n    function betBig(uint8 _matchNum, uint8 _pickLong) external payable {\r\n        require(startTime[_matchNum] > block.timestamp, \"game started\");\r\n        bytes32 subkID = keccak256(abi.encodePacked(nonce, block.timestamp));\r\n        Offercontract memory order;\r\n        order.bettor = msg.sender;\r\n        order.betAmount = msg.value;\r\n        order.matchNum = _matchNum;\r\n        order.payoff = (msg.value * odds(_matchNum, _pickLong)) / 1000;\r\n        order.pick = _pickLong;\r\n        order.oddsOffered = odds(_matchNum, 1 - _pickLong);\r\n        order.epoch = betEpoch;\r\n        offercontracts[subkID] = order;\r\n        nonce++;\r\n        emit BetBigRecord(\r\n            subkID,\r\n            msg.sender,\r\n            betEpoch,\r\n            _pickLong,\r\n            order.matchNum,\r\n            block.timestamp,\r\n            order.betAmount,\r\n            order.payoff,\r\n            order.oddsOffered\r\n        );\r\n    }\r\n\r\n    function takeBig(bytes32 subkid) external payable {\r\n        Offercontract storage k = offercontracts[subkid];\r\n        require(startTime[k.matchNum] > block.timestamp, \"game started\");\r\n        require(\r\n            msg.value >= k.payoff && k.epoch == betEpoch,\r\n            \"insufficient eth for betsize or bet for prior epoch\"\r\n        );\r\n        // first we create the new bet of the initial bigbet proposer based on their original parameters\r\n        Subcontract memory order;\r\n        order.bettor = k.bettor;\r\n        order.betAmount = k.betAmount;\r\n        order.matchNum = k.matchNum;\r\n        order.payoff = k.payoff;\r\n        order.pick = k.pick;\r\n        order.epoch = betEpoch;\r\n        // the offeror's bet is recorded in this struct\r\n        subcontracts[subkid] = order;\r\n        emit BetRecord(\r\n            subkid,\r\n            order.bettor,\r\n            betEpoch,\r\n            order.pick,\r\n            order.matchNum,\r\n            block.timestamp,\r\n            order.betAmount,\r\n            order.payoff\r\n        );\r\n        // next we create the taker's bet, where the taker is long the offeror's opponent\r\n        bytes32 subkID2 = keccak256(abi.encodePacked(nonce, block.timestamp));\r\n        Subcontract memory order2;\r\n        order2.bettor = msg.sender;\r\n        // note the bet amount for the taker is identical to the payoff of the initial bet\r\n        order2.betAmount = k.payoff;\r\n        order2.payoff = (k.payoff * k.oddsOffered) / 1000;\r\n        order2.matchNum = order.matchNum;\r\n        order2.pick = 1 - k.pick;\r\n        order2.epoch = betEpoch;\r\n        // in these bets only bettor money is liable upon game outcome, so each side covers the liability to the other\r\n        margin[2] += (k.betAmount + order2.betAmount);\r\n        // this is the new gross liability to original bettor team if it wins\r\n        betLong[order.pick][order.matchNum] += order.betAmount;\r\n        betPayout[order.pick][order.matchNum] += order.payoff;\r\n        // this is the new gross liability to this taker's team wins\r\n        betLong[order2.pick][order2.matchNum] += order2.betAmount;\r\n        betPayout[order2.pick][order2.matchNum] += order2.payoff;\r\n        emit BetRecord(\r\n            subkID2,\r\n            msg.sender,\r\n            betEpoch,\r\n            order2.pick,\r\n            order2.matchNum,\r\n            block.timestamp,\r\n            order2.betAmount,\r\n            order2.payoff\r\n        );\r\n        // refunds non-trivial overpayments of bet in case someone inadvertantly overpays\r\n        if (msg.value - order2.betAmount > 1e16) {\r\n            payable(msg.sender).transfer(msg.value - order2.betAmount);\r\n        }\r\n        subcontracts[subkID2] = order2;\r\n        nonce++;\r\n        // deletes the old offer so it cannot be taken again\r\n        delete offercontracts[subkid];\r\n    }\r\n\r\n    function killBig(bytes32 subkid2) external {\r\n        Offercontract storage k = offercontracts[subkid2];\r\n        // only the bettor can cancel his bet. Only a bet not yet taken can be cancelled\r\n        // because when taken the struct offercontracts is deleted\r\n        require(k.bettor == msg.sender, \"not yours to cancel\");\r\n        uint256 refund = k.betAmount;\r\n        delete offercontracts[subkid2];\r\n        payable(msg.sender).transfer(refund);\r\n    }\r\n\r\n    function settle(uint8[32] memory winner) external onlyAdmin {\r\n        // LP pledged capital, margin[1], and bettor funds, margin[2], are combined into a pot.\r\n        // Whatever is not paid-out to the bettors is then transferred to the LPs.\r\n        // require (block.timestamp > (earliestStart + 12 hours));\r\n        uint256 housePot = margin[1] + margin[2];\r\n        // this is the account tracking the sum of eth owed to bettors (wins and ties)\r\n        // the amount the bettor can reclaim\r\n        // eth used for bet collateral is set to zero at settlement for the next epoch\r\n        uint256 redemptionPot = 0;\r\n        // resets the margin accounts 'pledged LP capital' and bettor capital for the next epoch\r\n        margin[1] = 0;\r\n        margin[2] = 0;\r\n        uint8 matchSlot;\r\n        for (matchSlot = 0; matchSlot < 32; matchSlot++) {\r\n            // this tracks the match outcome, and is assigned to reduce gas costs\r\n            uint8 winningTeam = winner[matchSlot];\r\n            require(winningTeam < 3);\r\n            // if 0 or 1, there was a win\r\n            if (winningTeam != 2) {\r\n                redemptionPot +=\r\n                    betPayout[winningTeam][matchSlot] +\r\n                    betLong[winningTeam][matchSlot];\r\n                // this unique match&epoch&team hash will map to a win, 2, allowing bettors to claim their winnings\r\n                // via the redeem method.\r\n                bytes32 hashMatchEpochWinner =\r\n                    keccak256(\r\n                        abi.encodePacked(matchSlot, betEpoch, winningTeam)\r\n                    );\r\n                pickEpochResult[hashMatchEpochWinner] = 2;\r\n                // for ties or no-contest or cancellations, both bettors are refunded their bet amounts\r\n            } else {\r\n                bytes32 hashMatchEpochHome =\r\n                    keccak256(\r\n                        abi.encodePacked(matchSlot, betEpoch, winningTeam - 1)\r\n                    );\r\n                bytes32 hashMatchEpochAway =\r\n                    keccak256(\r\n                        abi.encodePacked(matchSlot, betEpoch, winningTeam - 2)\r\n                    );\r\n                redemptionPot += betLong[0][matchSlot] + betLong[1][matchSlot];\r\n                // the bettor's subcontract--match/epoch/team--will now map to a 'tie', coded as 1\r\n                pickEpochResult[hashMatchEpochHome] = 1;\r\n                pickEpochResult[hashMatchEpochAway] = 1;\r\n            }\r\n        }\r\n        // the default value of pickEpochResult[] is 0, which is like a loss in that bettor gets\r\n        // no eth back, so this mapping need not be assigned\r\n        // this subtracts redemptionPot from bettor capital and LP pledged capital\r\n        housePot = sub(housePot, redemptionPot);\r\n        // allocate 1% of payout to the oracle\r\n        uint256 oraclePot = redemptionPot / 100;\r\n        // revalue payout to be 99% of its original value\r\n        redemptionPot = oraclePot * 99;\r\n        // incrementing the epoch affects LP withdrawals, token claimTokens\r\n        // it also makes it so that no one can bet on old games\r\n        betEpoch++;\r\n        // money reallocated to accounts\r\n        oracleBalance += oraclePot;\r\n        margin[0] += housePot;\r\n        margin[3] += redemptionPot;\r\n        // old positions are reset to zero for the next epoch for margin calculations\r\n        delete betLong;\r\n        delete betPayout;\r\n        // resetting startTimes at zero makes sure bets can no longer happen on these matches\r\n        delete startTime;\r\n        // this pushes start times out, allowing LPs to fund and withdraw again\r\n        earliestStart = 2e9;\r\n    }\r\n\r\n    function redeem(bytes32 _subkId) external {\r\n        Subcontract storage k = subcontracts[_subkId];\r\n        require(\r\n            k.bettor == msg.sender,\r\n            \"can only redeem bets from owner of that bet\"\r\n        );\r\n        // checks teamEpochHash to see if bet receives money back\r\n        uint8 _pick = k.pick;\r\n        uint8 _matchNum = k.matchNum;\r\n        uint8 _epoch = k.epoch;\r\n        bytes32 hashMatchEpochWinner =\r\n            keccak256(abi.encodePacked(_matchNum, _epoch, _pick));\r\n        uint256 gameOutcome = pickEpochResult[hashMatchEpochWinner];\r\n        // 0 is for a loss or no outcome reported yet\r\n        require(gameOutcome != 0);\r\n        // both ties and wins receive back their initial bet amount, so this is the start\r\n        // whether a win or tie\r\n        uint256 payoff = k.betAmount;\r\n        // if a winner, add the payoff amount\r\n        if (gameOutcome == 2) {\r\n            payoff += k.payoff;\r\n        }\r\n        // the oracle revenue comes out of a 1% fee applied to bettor payouts\r\n        // paying out the 99% to the subset of payoffs ensures that rounding will not result\r\n        // in a rounding error where there is not enough eth to payout\r\n        // it is in the millionths of eth, so while it accumulates, it doesn't favor anyone\r\n        payoff = (payoff * 99) / 100;\r\n        // subtracts payout from the cumulative redemption pot\r\n        require(payoff <= margin[3]);\r\n        margin[3] -= payoff;\r\n        delete subcontracts[_subkId];\r\n        // eth goes straight to the bettor, no longer in the contract\r\n        payable(msg.sender).transfer(payoff);\r\n    }\r\n\r\n    function inactiveBook() external {\r\n        // this is just a safety method in case original oracles die together and money is stuck in the contract\r\n        // it allows all parties--bettors and LPs--to get their eth back as if all the games were ties\r\n        // bettors would have to then redeem, and LPs would have to sell shares\r\n        // 3e6 is about 35 days\r\n        require(\r\n            block.timestamp - earliestStart > 3e6,\r\n            \"emergency method for unattended contract\"\r\n        );\r\n        uint256 lpPot = margin[1] + margin[2];\r\n        margin[1] = 0;\r\n        margin[2] = 0;\r\n        uint8 i;\r\n        uint8 team = 0;\r\n        // games are treated as if they were all ties, giving users their eth back. They do need to redeem them, however.\r\n        for (i = 0; i < 32; i++) {\r\n            bytes32 hashMatchHome =\r\n                keccak256(abi.encodePacked(i, betEpoch, team));\r\n            pickEpochResult[hashMatchHome] = 1;\r\n            bytes32 hashMatchAway =\r\n                keccak256(abi.encodePacked(i, betEpoch, team + 1));\r\n            pickEpochResult[hashMatchAway] = 1;\r\n            lpPot = sub(lpPot, betLong[0][i] + betLong[1][i]);\r\n        }\r\n        // moves betEpoch up so all LPs are 'vested'\r\n        betEpoch += 5;\r\n        margin[0] += lpPot;\r\n        delete betLong;\r\n        delete betPayout;\r\n    }\r\n\r\n    function transmitInit(\r\n        string[32] memory _teamSchedule,\r\n        uint256[32] memory _startTime,\r\n        uint256[32] memory _decOdds,\r\n        uint256 earlyStart\r\n    ) external onlyAdmin {\r\n        // initially the schedule, start times, and odds are supplied all at once\r\n        // in the rare case that the schedule or start times must be adjusted, it would be through another submission\r\n        // of all this data, which is costly in terms of gas, but should be rare\r\n        earliestStart = earlyStart;\r\n        startTime = _startTime;\r\n        decOdds = _decOdds;\r\n        teamSchedule = _teamSchedule;\r\n    }\r\n\r\n    // incrementally, odds will be adjusted, though the schedule and start times will not be\r\n    function transmitDecOdds(uint256[32] memory _decOdds) external onlyAdmin {\r\n        decOdds = _decOdds;\r\n    }\r\n\r\n    /** these show methods are to make it easier for the web front end to process data */\r\n    function showLongs(uint256 i) external view returns (uint256[32] memory) {\r\n        return betLong[i];\r\n    }\r\n\r\n    function showLPGross(uint256 i) external view returns (uint256[32] memory) {\r\n        return betPayout[i];\r\n    }\r\n\r\n    function showdecOdds() external view returns (uint256[32] memory) {\r\n        return decOdds;\r\n    }\r\n\r\n    function showSchedString() external view returns (string[32] memory) {\r\n        return teamSchedule;\r\n    }\r\n\r\n    function showStartTime() external view returns (uint256[32] memory) {\r\n        return startTime;\r\n    }\r\n\r\n    // remove after debugging\r\n    function showMargin()\r\n        external\r\n        view\r\n        returns (\r\n            uint256 unusedCapital,\r\n            uint256 usedCapital,\r\n            uint256 betCapital,\r\n            uint256 oraclBalance,\r\n            uint256 redeemPot,\r\n            uint256 kontractEthBal\r\n        )\r\n    {\r\n        unusedCapital = margin[0] / 1e12;\r\n        usedCapital = margin[1] / 1e12;\r\n        betCapital = margin[2] / 1e12;\r\n        redeemPot = margin[3] / 1e12;\r\n        oraclBalance = oracleBalance / 1e12;\r\n        kontractEthBal = address(this).balance / 1e12;\r\n    }\r\n\r\n    // this makes it easy for programs to check if a big bet--which is in the event logs--is still active\r\n    function checkOpen(bytes32 _subkID) external view returns (bool) {\r\n        bool openOrder = (offercontracts[_subkID].epoch != 0);\r\n        return openOrder;\r\n    }\r\n\r\n    // this makes it easy for programs to check if a bet is redeemable\r\n    function checkRedeem(bytes32 _subkID) external view returns (bool) {\r\n        Subcontract storage k = subcontracts[_subkID];\r\n        bytes32 teamEpochHash =\r\n            keccak256(abi.encodePacked(k.matchNum, k.epoch, k.pick));\r\n        bool redeemable = (pickEpochResult[teamEpochHash] > 0);\r\n        return redeemable;\r\n    }\r\n\r\n    // odds are loaded for the home team/player,\r\n    // the away odds  are then a function of this consistent with a 5% house vig\r\n    // thus the standard -110/-110 on games that are essentially evenly matched\r\n    function odds(uint256 _match, uint256 _player)\r\n        public\r\n        view\r\n        returns (uint256)\r\n    {\r\n        uint256 betOdds = decOdds[_match];\r\n        if (_player == 1) {\r\n            betOdds = 1e6 / (90 + betOdds) - 90;\r\n        }\r\n        return betOdds;\r\n    }\r\n\r\n    function mul(uint256 a, uint256 b) internal pure returns (uint256) {\r\n        uint256 c = a * b;\r\n        require(c / a == b, \"multiplication overflow\");\r\n        return c;\r\n    }\r\n\r\n    function sub(uint256 a, uint256 b) internal pure returns (uint256) {\r\n        require(b <= a, \"subtraction underflow on uints\");\r\n        uint256 c = a - b;\r\n        return c;\r\n    }\r\n\r\n    // this is used for calculating require d margin\r\n    function maxZero(int256 a, int256 b) internal pure returns (int256) {\r\n        int256 c = a;\r\n        if (a <= b) c = b;\r\n        if (c <= 0) c = 0;\r\n        return c;\r\n    }\r\n}\r\n",
  "sourcePath": "/home/yash/Development/freelancing/dapps/test8/src/contracts/solidity/Betting.sol",
  "compiler": {
    "name": "solc",
    "version": "0.7.4+commit.3f05b770.Emscripten.clang"
  },
  "schemaVersion": "3.3.3",
  "updatedAt": "2021-01-02T02:44:54.297Z",
  "networkType": "ethereum",
  "devdoc": {
    "kind": "dev",
    "methods": {},
    "version": 1
  },
  "userdoc": {
    "kind": "user",
    "methods": {
      "showLongs(uint256)": {
        "notice": "these show methods are to make it easier for the web front end to process data "
      }
    },
    "notice": "SPDX-License-Identifier: MIT Copyright  2020 Eric G. Falkenstein Permission is hereby granted, free of charge, to any person obtaining a copy of this software and associated documentation files (the \"Software\"), to deal in the Software without restriction, including without limitation the rights to use, copy, modify, merge, publish, distribute, sublicense, andor sell copies of the Software, and to permit persons to whom the Software is furnished to do so, subject to the following conditions: The above copyright notice and this permission notice shall be included in all copies or substantial portions of the Software. THE SOFTWARE IS PROVIDED \"AS IS\", WITHOUT WARRANTY OF ANY KIND, EXPRESS OR IMPLIED, INCLUDING BUT NOT LIMITED TO THE WARRANTIES OF MERCHANTABILITY, FITNESS FOR A PARTICULAR PURPOSE AND NONINFRINGEMENT. IN NO EVENT SHALL THE AUTHORS OR COPYRIGHT HOLDERS BE LIABLE FOR ANY CLAIM, DAMAGES OR OTHER LIABILITY, WHETHER IN AN ACTION OF CONTRACT, TORT OR OTHERWISE, ARISING FROM, OUT OF OR IN CONNECTION WITH THE SOFTWARE OR THE USE OR OTHER DEALINGS IN THE SOFTWARE.",
    "version": 1
  }
}