{
  "contractName": "Oracle",
  "abi": [
    {
      "inputs": [
        {
          "internalType": "address payable",
          "name": "bettingk",
          "type": "address"
        },
        {
          "internalType": "address",
          "name": "_token",
          "type": "address"
        }
      ],
      "stateMutability": "nonpayable",
      "type": "constructor"
    },
    {
      "anonymous": false,
      "inputs": [
        {
          "indexed": false,
          "internalType": "uint256[32]",
          "name": "decOdds",
          "type": "uint256[32]"
        },
        {
          "indexed": false,
          "internalType": "uint8",
          "name": "epoch",
          "type": "uint8"
        },
        {
          "indexed": false,
          "internalType": "uint256",
          "name": "timestamp",
          "type": "uint256"
        }
      ],
      "name": "DecOddsPosted",
      "type": "event"
    },
    {
      "anonymous": false,
      "inputs": [
        {
          "indexed": false,
          "internalType": "uint256",
          "name": "minBet",
          "type": "uint256"
        },
        {
          "indexed": false,
          "internalType": "uint256",
          "name": "concLimit",
          "type": "uint256"
        },
        {
          "indexed": false,
          "internalType": "uint8",
          "name": "epoch",
          "type": "uint8"
        },
        {
          "indexed": false,
          "internalType": "uint256",
          "name": "timestamp",
          "type": "uint256"
        }
      ],
      "name": "ParamsPosted",
      "type": "event"
    },
    {
      "anonymous": false,
      "inputs": [
        {
          "indexed": false,
          "internalType": "string",
          "name": "process",
          "type": "string"
        },
        {
          "indexed": false,
          "internalType": "uint256",
          "name": "timestamp",
          "type": "uint256"
        },
        {
          "indexed": false,
          "internalType": "address",
          "name": "proposer",
          "type": "address"
        }
      ],
      "name": "Proposal",
      "type": "event"
    },
    {
      "anonymous": false,
      "inputs": [
        {
          "indexed": false,
          "internalType": "uint8[32]",
          "name": "winner",
          "type": "uint8[32]"
        },
        {
          "indexed": false,
          "internalType": "uint8",
          "name": "epoch",
          "type": "uint8"
        },
        {
          "indexed": false,
          "internalType": "uint256",
          "name": "timestamp",
          "type": "uint256"
        }
      ],
      "name": "ResultsPosted",
      "type": "event"
    },
    {
      "anonymous": false,
      "inputs": [
        {
          "indexed": false,
          "internalType": "string[32]",
          "name": "sched",
          "type": "string[32]"
        },
        {
          "indexed": false,
          "internalType": "uint8",
          "name": "epoch",
          "type": "uint8"
        },
        {
          "indexed": false,
          "internalType": "uint256",
          "name": "timestamp",
          "type": "uint256"
        }
      ],
      "name": "SchedulePosted",
      "type": "event"
    },
    {
      "anonymous": false,
      "inputs": [
        {
          "indexed": false,
          "internalType": "uint256[32]",
          "name": "starttimes",
          "type": "uint256[32]"
        },
        {
          "indexed": false,
          "internalType": "uint8",
          "name": "epoch",
          "type": "uint8"
        },
        {
          "indexed": false,
          "internalType": "uint256",
          "name": "timestamp",
          "type": "uint256"
        }
      ],
      "name": "StartTimesPosted",
      "type": "event"
    },
    {
      "inputs": [],
      "name": "betEpoch",
      "outputs": [
        {
          "internalType": "uint8",
          "name": "",
          "type": "uint8"
        }
      ],
      "stateMutability": "view",
      "type": "function",
      "constant": true
    },
    {
      "inputs": [],
      "name": "bettingContract",
      "outputs": [
        {
          "internalType": "contract Betting",
          "name": "",
          "type": "address"
        }
      ],
      "stateMutability": "view",
      "type": "function",
      "constant": true
    },
    {
      "inputs": [],
      "name": "bond",
      "outputs": [
        {
          "internalType": "uint256",
          "name": "",
          "type": "uint256"
        }
      ],
      "stateMutability": "view",
      "type": "function",
      "constant": true
    },
    {
      "inputs": [],
      "name": "earliestStart",
      "outputs": [
        {
          "internalType": "uint256",
          "name": "",
          "type": "uint256"
        }
      ],
      "stateMutability": "view",
      "type": "function",
      "constant": true
    },
    {
      "inputs": [],
      "name": "localSupply",
      "outputs": [
        {
          "internalType": "uint256",
          "name": "",
          "type": "uint256"
        }
      ],
      "stateMutability": "view",
      "type": "function",
      "constant": true
    },
    {
      "inputs": [
        {
          "internalType": "uint256",
          "name": "",
          "type": "uint256"
        }
      ],
      "name": "propMiscParams",
      "outputs": [
        {
          "internalType": "uint256",
          "name": "",
          "type": "uint256"
        }
      ],
      "stateMutability": "view",
      "type": "function",
      "constant": true
    },
    {
      "inputs": [],
      "name": "propNumber",
      "outputs": [
        {
          "internalType": "uint16",
          "name": "",
          "type": "uint16"
        }
      ],
      "stateMutability": "view",
      "type": "function",
      "constant": true
    },
    {
      "inputs": [
        {
          "internalType": "uint256",
          "name": "",
          "type": "uint256"
        }
      ],
      "name": "propOdds",
      "outputs": [
        {
          "internalType": "uint256",
          "name": "",
          "type": "uint256"
        }
      ],
      "stateMutability": "view",
      "type": "function",
      "constant": true
    },
    {
      "inputs": [
        {
          "internalType": "uint256",
          "name": "",
          "type": "uint256"
        }
      ],
      "name": "propResults",
      "outputs": [
        {
          "internalType": "uint8",
          "name": "",
          "type": "uint8"
        }
      ],
      "stateMutability": "view",
      "type": "function",
      "constant": true
    },
    {
      "inputs": [
        {
          "internalType": "uint256",
          "name": "",
          "type": "uint256"
        }
      ],
      "name": "propSchedule",
      "outputs": [
        {
          "internalType": "string",
          "name": "",
          "type": "string"
        }
      ],
      "stateMutability": "view",
      "type": "function",
      "constant": true
    },
    {
      "inputs": [
        {
          "internalType": "uint256",
          "name": "",
          "type": "uint256"
        }
      ],
      "name": "propStartTime",
      "outputs": [
        {
          "internalType": "uint256",
          "name": "",
          "type": "uint256"
        }
      ],
      "stateMutability": "view",
      "type": "function",
      "constant": true
    },
    {
      "inputs": [],
      "name": "proposer",
      "outputs": [
        {
          "internalType": "address",
          "name": "",
          "type": "address"
        }
      ],
      "stateMutability": "view",
      "type": "function",
      "constant": true
    },
    {
      "inputs": [],
      "name": "timer",
      "outputs": [
        {
          "internalType": "uint256",
          "name": "",
          "type": "uint256"
        }
      ],
      "stateMutability": "view",
      "type": "function",
      "constant": true
    },
    {
      "inputs": [],
      "name": "timerEthDiv",
      "outputs": [
        {
          "internalType": "uint256",
          "name": "",
          "type": "uint256"
        }
      ],
      "stateMutability": "view",
      "type": "function",
      "constant": true
    },
    {
      "inputs": [],
      "name": "token",
      "outputs": [
        {
          "internalType": "contract Token",
          "name": "",
          "type": "address"
        }
      ],
      "stateMutability": "view",
      "type": "function",
      "constant": true
    },
    {
      "inputs": [
        {
          "internalType": "address",
          "name": "",
          "type": "address"
        }
      ],
      "name": "tokenBalances",
      "outputs": [
        {
          "internalType": "uint256",
          "name": "",
          "type": "uint256"
        }
      ],
      "stateMutability": "view",
      "type": "function",
      "constant": true
    },
    {
      "inputs": [
        {
          "internalType": "address",
          "name": "",
          "type": "address"
        }
      ],
      "name": "tokenVoteTime",
      "outputs": [
        {
          "internalType": "uint256",
          "name": "",
          "type": "uint256"
        }
      ],
      "stateMutability": "view",
      "type": "function",
      "constant": true
    },
    {
      "inputs": [],
      "name": "underReview",
      "outputs": [
        {
          "internalType": "bool",
          "name": "",
          "type": "bool"
        }
      ],
      "stateMutability": "view",
      "type": "function",
      "constant": true
    },
    {
      "inputs": [],
      "name": "voteNo",
      "outputs": [
        {
          "internalType": "uint256",
          "name": "",
          "type": "uint256"
        }
      ],
      "stateMutability": "view",
      "type": "function",
      "constant": true
    },
    {
      "inputs": [
        {
          "internalType": "address",
          "name": "",
          "type": "address"
        }
      ],
      "name": "voteTracker",
      "outputs": [
        {
          "internalType": "uint32",
          "name": "",
          "type": "uint32"
        }
      ],
      "stateMutability": "view",
      "type": "function",
      "constant": true
    },
    {
      "inputs": [],
      "name": "voteYes",
      "outputs": [
        {
          "internalType": "uint256",
          "name": "",
          "type": "uint256"
        }
      ],
      "stateMutability": "view",
      "type": "function",
      "constant": true
    },
    {
      "stateMutability": "payable",
      "type": "receive",
      "payable": true
    },
    {
      "inputs": [
        {
          "internalType": "bool",
          "name": "sendData",
          "type": "bool"
        }
      ],
      "name": "vote",
      "outputs": [],
      "stateMutability": "nonpayable",
      "type": "function"
    },
    {
      "inputs": [
        {
          "internalType": "bool",
          "name": "isYes",
          "type": "bool"
        }
      ],
      "name": "voteToken",
      "outputs": [],
      "stateMutability": "nonpayable",
      "type": "function"
    },
    {
      "inputs": [],
      "name": "dividendClaim",
      "outputs": [],
      "stateMutability": "nonpayable",
      "type": "function"
    },
    {
      "inputs": [
        {
          "internalType": "string[32]",
          "name": "teamsched",
          "type": "string[32]"
        },
        {
          "internalType": "uint256[32]",
          "name": "starts",
          "type": "uint256[32]"
        },
        {
          "internalType": "uint256[32]",
          "name": "decimalOdds",
          "type": "uint256[32]"
        },
        {
          "internalType": "uint256",
          "name": "earlyStart",
          "type": "uint256"
        }
      ],
      "name": "initPost",
      "outputs": [],
      "stateMutability": "nonpayable",
      "type": "function"
    },
    {
      "inputs": [
        {
          "internalType": "uint256[32]",
          "name": "adjDecimalOdds",
          "type": "uint256[32]"
        }
      ],
      "name": "oddsPost",
      "outputs": [],
      "stateMutability": "nonpayable",
      "type": "function"
    },
    {
      "inputs": [
        {
          "internalType": "uint8[32]",
          "name": "resultVector",
          "type": "uint8[32]"
        }
      ],
      "name": "settlePost",
      "outputs": [],
      "stateMutability": "nonpayable",
      "type": "function"
    },
    {
      "inputs": [
        {
          "internalType": "uint256[2]",
          "name": "minbetMaxParam",
          "type": "uint256[2]"
        }
      ],
      "name": "paramPost",
      "outputs": [],
      "stateMutability": "nonpayable",
      "type": "function"
    },
    {
      "inputs": [],
      "name": "initProcess",
      "outputs": [],
      "stateMutability": "nonpayable",
      "type": "function"
    },
    {
      "inputs": [],
      "name": "oddsProcess",
      "outputs": [],
      "stateMutability": "nonpayable",
      "type": "function"
    },
    {
      "inputs": [],
      "name": "settleProcess",
      "outputs": [],
      "stateMutability": "nonpayable",
      "type": "function"
    },
    {
      "inputs": [],
      "name": "paramProcess",
      "outputs": [],
      "stateMutability": "nonpayable",
      "type": "function"
    },
    {
      "inputs": [
        {
          "internalType": "uint256",
          "name": "amt",
          "type": "uint256"
        }
      ],
      "name": "withdrawTokens",
      "outputs": [],
      "stateMutability": "nonpayable",
      "type": "function"
    },
    {
      "inputs": [
        {
          "internalType": "uint256",
          "name": "amt",
          "type": "uint256"
        }
      ],
      "name": "depositTokens",
      "outputs": [],
      "stateMutability": "nonpayable",
      "type": "function"
    },
    {
      "inputs": [],
      "name": "showSched",
      "outputs": [
        {
          "internalType": "string[32]",
          "name": "teamSched",
          "type": "string[32]"
        }
      ],
      "stateMutability": "view",
      "type": "function",
      "constant": true
    },
    {
      "inputs": [],
      "name": "showpropStartTimes",
      "outputs": [
        {
          "internalType": "uint256[32]",
          "name": "teamStart",
          "type": "uint256[32]"
        }
      ],
      "stateMutability": "view",
      "type": "function",
      "constant": true
    },
    {
      "inputs": [],
      "name": "showResults",
      "outputs": [
        {
          "internalType": "uint8[32]",
          "name": "resultVector",
          "type": "uint8[32]"
        }
      ],
      "stateMutability": "view",
      "type": "function",
      "constant": true
    },
    {
      "inputs": [],
      "name": "showOdds",
      "outputs": [
        {
          "internalType": "uint256[32]",
          "name": "adjOdds",
          "type": "uint256[32]"
        }
      ],
      "stateMutability": "view",
      "type": "function",
      "constant": true
    },
    {
      "inputs": [],
      "name": "showVotes",
      "outputs": [
        {
          "internalType": "uint256",
          "name": "proposalEndTime",
          "type": "uint256"
        },
        {
          "internalType": "uint256",
          "name": "yesVotes",
          "type": "uint256"
        },
        {
          "internalType": "uint256",
          "name": "noVotes",
          "type": "uint256"
        }
      ],
      "stateMutability": "view",
      "type": "function",
      "constant": true
    }
  ],
  "bytecode": "0x60806040523480156200001157600080fd5b506040516200498238038062004982833981810160405281019062000037919062000115565b81606e60006101000a81548173ffffffffffffffffffffffffffffffffffffffff021916908373ffffffffffffffffffffffffffffffffffffffff16021790555080606d60006101000a81548173ffffffffffffffffffffffffffffffffffffffff021916908373ffffffffffffffffffffffffffffffffffffffff160217905550637735940060648190555060016000806101000a81548160ff021916908360ff1602179055505050620001d2565b600081519050620000f8816200019e565b92915050565b6000815190506200010f81620001b8565b92915050565b600080604083850312156200012957600080fd5b60006200013985828601620000fe565b92505060206200014c85828601620000e7565b9150509250929050565b600062000163826200017e565b9050919050565b600062000177826200017e565b9050919050565b600073ffffffffffffffffffffffffffffffffffffffff82169050919050565b620001a98162000156565b8114620001b557600080fd5b50565b620001c3816200016a565b8114620001cf57600080fd5b50565b6147a080620001e26000396000f3fe6080604052600436106102345760003560e01c806360d6c8191161012e578063aec9e118116100ab578063e966f49f1161006f578063e966f49f14610806578063edb677da1461081d578063f059bb8314610846578063f6c259d514610883578063fc0c546a146108c05761023b565b8063aec9e1181461072f578063c6ede21f1461075a578063cb56067814610785578063dd49756e146107b0578063e2125a1f146107d95761023b565b80637cddc940116100f25780637cddc9401461064657806388c9cb3c1461068357806389e997e1146106ae57806390cf581c146106d9578063a8e4fb90146107045761023b565b806360d6c8191461056157806364c9ec6f1461058a578063696c408c146105b557806369c6a52e146105de578063731d9fae146106095761023b565b80632ae11136116101bc5780634b9f5c98116101805780634b9f5c981461046a578063523fba7f14610493578063586e34bb146104d05780635d85579d1461050d5780635f0bff75146105365761023b565b80632ae1113614610397578063315a095d146103c25780633445ed9d146103eb5780633c7af7aa1461042857806341c12a701461043f5761023b565b80631300f095116102035780631300f095146102d45780631b06ce92146102eb57806321cb4831146103165780632844b7951461034157806328dee9281461036c5761023b565b806303ecacc71461024057806309e270ac1461027d5780630a491d081461029457806312660d42146102ab5761023b565b3661023b57005b600080fd5b34801561024c57600080fd5b5061026760048036038101906102629190612aa7565b6108eb565b6040516102749190613e6e565b60405180910390f35b34801561028957600080fd5b50610292610915565b005b3480156102a057600080fd5b506102a9610aba565b005b3480156102b757600080fd5b506102d260048036038101906102cd919061295a565b610c8c565b005b3480156102e057600080fd5b506102e9610d60565b005b3480156102f757600080fd5b50610300610f28565b60405161030d9190613d6a565b60405180910390f35b34801561032257600080fd5b5061032b610f2e565b6040516103389190613b4b565b60405180910390f35b34801561034d57600080fd5b50610356610f54565b6040516103639190613d6a565b60405180910390f35b34801561037857600080fd5b50610381610f5a565b60405161038e9190613a4c565b60405180910390f35b3480156103a357600080fd5b506103ac610fa5565b6040516103b9919061399d565b60405180910390f35b3480156103ce57600080fd5b506103e960048036038101906103e49190612aa7565b611082565b005b3480156103f757600080fd5b50610412600480360381019061040d9190612aa7565b6112bd565b60405161041f9190613d6a565b60405180910390f35b34801561043457600080fd5b5061043d6112d8565b005b34801561044b57600080fd5b506104546114f4565b6040516104619190613d6a565b60405180910390f35b34801561047657600080fd5b50610491600480360381019061048c9190612a55565b6114fa565b005b34801561049f57600080fd5b506104ba60048036038101906104b59190612931565b6116f4565b6040516104c79190613d6a565b60405180910390f35b3480156104dc57600080fd5b506104f760048036038101906104f29190612aa7565b61170c565b6040516105049190613b81565b60405180910390f35b34801561051957600080fd5b50610534600480360381019061052f9190612a2b565b6117bf565b005b34801561054257600080fd5b5061054b61182f565b6040516105589190613b30565b60405180910390f35b34801561056d57600080fd5b5061058860048036038101906105839190612a01565b611842565b005b34801561059657600080fd5b5061059f61190d565b6040516105ac9190613d6a565b60405180910390f35b3480156105c157600080fd5b506105dc60048036038101906105d79190612a55565b611913565b005b3480156105ea57600080fd5b506105f3611ac2565b6040516106009190613a4c565b60405180910390f35b34801561061557600080fd5b50610630600480360381019061062b9190612aa7565b611b0d565b60405161063d9190613d6a565b60405180910390f35b34801561065257600080fd5b5061066d60048036038101906106689190612aa7565b611b28565b60405161067a9190613d6a565b60405180910390f35b34801561068f57600080fd5b50610698611b43565b6040516106a59190613d6a565b60405180910390f35b3480156106ba57600080fd5b506106c3611b49565b6040516106d09190613d6a565b60405180910390f35b3480156106e557600080fd5b506106ee611b4f565b6040516106fb9190613d6a565b60405180910390f35b34801561071057600080fd5b50610719611b55565b6040516107269190613922565b60405180910390f35b34801561073b57600080fd5b50610744611b7b565b6040516107519190613abe565b60405180910390f35b34801561076657600080fd5b5061076f611bec565b60405161077c9190613d4f565b60405180910390f35b34801561079157600080fd5b5061079a611c00565b6040516107a79190613e6e565b60405180910390f35b3480156107bc57600080fd5b506107d760048036038101906107d29190612aa7565b611c11565b005b3480156107e557600080fd5b506107ee611d31565b6040516107fd93929190613dd7565b60405180910390f35b34801561081257600080fd5b5061081b611d4a565b005b34801561082957600080fd5b50610844600480360381019061083f91906129d8565b611fc5565b005b34801561085257600080fd5b5061086d60048036038101906108689190612931565b612035565b60405161087a9190613e53565b60405180910390f35b34801561088f57600080fd5b506108aa60048036038101906108a59190612931565b612058565b6040516108b79190613d6a565b60405180910390f35b3480156108cc57600080fd5b506108d5612070565b6040516108e29190613b66565b60405180910390f35b602181602081106108fb57600080fd5b60209182820401919006915054906101000a900460ff1681565b6000602360006020811061092557fe5b015414801561094457506000604360006020811061093f57fe5b015414155b61094d57600080fd5b606b54606a541115610aa257606654606f6000606c60009054906101000a900473ffffffffffffffffffffffffffffffffffffffff1673ffffffffffffffffffffffffffffffffffffffff1673ffffffffffffffffffffffffffffffffffffffff16815260200190815260200160002060008282540192505081905550606e60009054906101000a900473ffffffffffffffffffffffffffffffffffffffff1673ffffffffffffffffffffffffffffffffffffffff16631340d9e060436040518263ffffffff1660e01b8152600401610a269190613a68565b600060405180830381600087803b158015610a4057600080fd5b505af1158015610a54573d6000803e3d6000fd5b505050507f21f132f6fe7f4508b2a69ae2a7e676cac0329bdfb44fcebb19e2bab47d77c95b604360008054906101000a900460ff1642604051610a9993929190613a84565b60405180910390a15b610aaa612096565b60436000610ab89190612386565b565b60006021600060208110610aca57fe5b602091828204019190069054906101000a900460ff1660ff161415610aee57600080fd5b606b54606a541115610c7457606654606f6000606c60009054906101000a900473ffffffffffffffffffffffffffffffffffffffff1673ffffffffffffffffffffffffffffffffffffffff1673ffffffffffffffffffffffffffffffffffffffff16815260200190815260200160002060008282540192505081905550606e60009054906101000a900473ffffffffffffffffffffffffffffffffffffffff1673ffffffffffffffffffffffffffffffffffffffff16630c26f99460216040518263ffffffff1660e01b8152600401610bc79190613ada565b600060405180830381600087803b158015610be157600080fd5b505af1158015610bf5573d6000803e3d6000fd5b5050505060008081819054906101000a900460ff168092919060010191906101000a81548160ff021916908360ff160217905550507feeb91ef60cb7593f1074bc16a44c4b12f3a846200ebc6ee0e5a01e4f5faa96a6602160008054906101000a900460ff1642604051610c6b93929190613af6565b60405180910390a15b610c7c612096565b60216000610c8a9190612399565b565b600060019054906101000a900460ff1615610cdc576040517f08c379a0000000000000000000000000000000000000000000000000000000008152600401610cd390613bff565b60405180910390fd5b610ce4612127565b836001906020610cf59291906123a0565b50826023906020610d079291906123f3565b50816043906020610d199291906123f3565b50806063819055507f6c29c785e34244b1aa2388cc2446e1e2b8ed4f49b4b09f5a93bd5355e0de97aa4233604051610d52929190613c7b565b60405180910390a150505050565b60006068600060028110610d7057fe5b01541415610d7d57600080fd5b606b54606a541115610f1057606654606f6000606c60009054906101000a900473ffffffffffffffffffffffffffffffffffffffff1673ffffffffffffffffffffffffffffffffffffffff1673ffffffffffffffffffffffffffffffffffffffff16815260200190815260200160002060008282540192505081905550606e60009054906101000a900473ffffffffffffffffffffffffffffffffffffffff1673ffffffffffffffffffffffffffffffffffffffff16637013cc566068600060028110610e4657fe5b01546068600160028110610e5657fe5b01546040518363ffffffff1660e01b8152600401610e75929190613dae565b600060405180830381600087803b158015610e8f57600080fd5b505af1158015610ea3573d6000803e3d6000fd5b505050507fbe33724f5ab3fbc5788f4ae2c738d17c8fcf96983a4f83f30c18296878bbca956068600060028110610ed657fe5b01546068600160028110610ee657fe5b015460008054906101000a900460ff1642604051610f079493929190613e0e565b60405180910390a15b610f18612096565b60686000610f269190612433565b565b60675481565b606e60009054906101000a900473ffffffffffffffffffffffffffffffffffffffff1681565b60655481565b610f62612441565b6043602080602002604051908101604052809291908260208015610f9b576020028201915b815481526020019060010190808311610f87575b5050505050905090565b610fad612464565b6001602080602002604051908101604052809291906000905b82821015611079578382018054600181600116156101000203166002900480601f0160208091040260200160405190810160405280929190818152602001828054600181600116156101000203166002900480156110655780601f1061103a57610100808354040283529160200191611065565b820191906000526020600020905b81548152906001019060200180831161104857829003601f168201915b505050505081526020019060010190610fc6565b50505050905090565b60675481111580156110d35750606f60003373ffffffffffffffffffffffffffffffffffffffff1673ffffffffffffffffffffffffffffffffffffffff168152602001908152602001600020548111155b611112576040517f08c379a000000000000000000000000000000000000000000000000000000000815260040161110990613d2f565b60405180910390fd5b600060019054906101000a900460ff1615611162576040517f08c379a000000000000000000000000000000000000000000000000000000000815260040161115990613c5b565b60405180910390fd5b42607060003373ffffffffffffffffffffffffffffffffffffffff1673ffffffffffffffffffffffffffffffffffffffff16815260200190815260200160002054106111ad57600080fd5b80606f60003373ffffffffffffffffffffffffffffffffffffffff1673ffffffffffffffffffffffffffffffffffffffff1681526020019081526020016000206000828254039250508190555080606760008282540392505081905550606d60009054906101000a900473ffffffffffffffffffffffffffffffffffffffff1673ffffffffffffffffffffffffffffffffffffffff1663a9059cbb33836040518363ffffffff1660e01b8152600401611267929190613974565b602060405180830381600087803b15801561128157600080fd5b505af1158015611295573d6000803e3d6000fd5b505050506040513d601f19601f820116820180604052508101906112b99190612a7e565b5050565b606881600281106112cd57600080fd5b016000915090505481565b6000600d60008054906101000a900460ff1660ff16816112f457fe5b0660ff161461130257600080fd5b6000606f60003373ffffffffffffffffffffffffffffffffffffffff1673ffffffffffffffffffffffffffffffffffffffff168152602001908152602001600020541161134e57600080fd5b6000606f60003373ffffffffffffffffffffffffffffffffffffffff1673ffffffffffffffffffffffffffffffffffffffff1681526020019081526020016000205490506000606f60003373ffffffffffffffffffffffffffffffffffffffff1673ffffffffffffffffffffffffffffffffffffffff16815260200190815260200160002081905550606d60009054906101000a900473ffffffffffffffffffffffffffffffffffffffff1673ffffffffffffffffffffffffffffffffffffffff1663a9059cbb33836040518363ffffffff1660e01b8152600401611434929190613974565b602060405180830381600087803b15801561144e57600080fd5b505af1158015611462573d6000803e3d6000fd5b505050506040513d601f19601f820116820180604052508101906114869190612a7e565b5060006067544783028161149657fe5b0490503373ffffffffffffffffffffffffffffffffffffffff166108fc829081150290604051600060405180830381858888f193505050501580156114df573d6000803e3d6000fd5b50816067600082825403925050819055505050565b606b5481565b6000606f60003373ffffffffffffffffffffffffffffffffffffffff1673ffffffffffffffffffffffffffffffffffffffff168152602001908152602001600020541161154657600080fd5b600060019054906101000a900460ff1661155f57600080fd5b602260009054906101000a900461ffff1661ffff16607160003373ffffffffffffffffffffffffffffffffffffffff1673ffffffffffffffffffffffffffffffffffffffff16815260200190815260200160002060009054906101000a900463ffffffff1663ffffffff1614156115d557600080fd5b602260009054906101000a900461ffff1661ffff16607160003373ffffffffffffffffffffffffffffffffffffffff1673ffffffffffffffffffffffffffffffffffffffff16815260200190815260200160002060006101000a81548163ffffffff021916908363ffffffff16021790555080156116a157606f60003373ffffffffffffffffffffffffffffffffffffffff1673ffffffffffffffffffffffffffffffffffffffff16815260200190815260200160002054606a600082825401925050819055506116f1565b606f60003373ffffffffffffffffffffffffffffffffffffffff1673ffffffffffffffffffffffffffffffffffffffff16815260200190815260200160002054606b600082825401925050819055505b50565b606f6020528060005260406000206000915090505481565b6001816020811061171c57600080fd5b016000915090508054600181600116156101000203166002900480601f0160208091040260200160405190810160405280929190818152602001828054600181600116156101000203166002900480156117b75780601f1061178c576101008083540402835291602001916117b7565b820191906000526020600020905b81548152906001019060200180831161179a57829003601f168201915b505050505081565b600060019054906101000a900460ff16156117d957600080fd5b6117e1612127565b8060219060206117f292919061248c565b507f6c29c785e34244b1aa2388cc2446e1e2b8ed4f49b4b09f5a93bd5355e0de97aa4233604051611824929190613c1f565b60405180910390a150565b600060019054906101000a900460ff1681565b600060019054906101000a900460ff161561185c57600080fd5b611864612127565b7f6c29c785e34244b1aa2388cc2446e1e2b8ed4f49b4b09f5a93bd5355e0de97aa42606c60009054906101000a900473ffffffffffffffffffffffffffffffffffffffff166040516118b7929190613cf3565b60405180910390a18060439060206118d09291906123f3565b507f6c29c785e34244b1aa2388cc2446e1e2b8ed4f49b4b09f5a93bd5355e0de97aa4233604051611902929190613ba3565b60405180910390a150565b60665481565b6000606f60003373ffffffffffffffffffffffffffffffffffffffff1673ffffffffffffffffffffffffffffffffffffffff168152602001908152602001600020541161195f57600080fd5b42607060003373ffffffffffffffffffffffffffffffffffffffff1673ffffffffffffffffffffffffffffffffffffffff16815260200190815260200160002054106119aa57600080fd5b606d60009054906101000a900473ffffffffffffffffffffffffffffffffffffffff1673ffffffffffffffffffffffffffffffffffffffff166381c24d7b606f60003373ffffffffffffffffffffffffffffffffffffffff1673ffffffffffffffffffffffffffffffffffffffff16815260200190815260200160002054836040518363ffffffff1660e01b8152600401611a46929190613d85565b600060405180830381600087803b158015611a6057600080fd5b505af1158015611a74573d6000803e3d6000fd5b5050505060074201607060003373ffffffffffffffffffffffffffffffffffffffff1673ffffffffffffffffffffffffffffffffffffffff1681526020019081526020016000208190555050565b611aca612441565b6023602080602002604051908101604052809291908260208015611b03576020028201915b815481526020019060010190808311611aef575b5050505050905090565b60238160208110611b1d57600080fd5b016000915090505481565b60438160208110611b3857600080fd5b016000915090505481565b60645481565b60635481565b606a5481565b606c60009054906101000a900473ffffffffffffffffffffffffffffffffffffffff1681565b611b83612526565b6021602080602002604051908101604052809291908260208015611be2576020028201916000905b82829054906101000a900460ff1660ff1681526020019060010190602082600001049283019260010382029150808411611bab5790505b5050505050905090565b602260009054906101000a900461ffff1681565b60008054906101000a900460ff1681565b6065544211611c1f57600080fd5b8060676000828254019250508190555080606f60003373ffffffffffffffffffffffffffffffffffffffff1673ffffffffffffffffffffffffffffffffffffffff16815260200190815260200160002060008282540192505081905550606d60009054906101000a900473ffffffffffffffffffffffffffffffffffffffff1673ffffffffffffffffffffffffffffffffffffffff166323b872dd3330846040518463ffffffff1660e01b8152600401611cdb9392919061393d565b602060405180830381600087803b158015611cf557600080fd5b505af1158015611d09573d6000803e3d6000fd5b505050506040513d601f19601f82011682018060405250810190611d2d9190612a7e565b5050565b60008060006064549250606a549150606b549050909192565b60006023600060208110611d5a57fe5b01541415611d6757600080fd5b606b54606a541115611f5857606654606f6000606c60009054906101000a900473ffffffffffffffffffffffffffffffffffffffff1673ffffffffffffffffffffffffffffffffffffffff1673ffffffffffffffffffffffffffffffffffffffff16815260200190815260200160002060008282540192505081905550606e60009054906101000a900473ffffffffffffffffffffffffffffffffffffffff1673ffffffffffffffffffffffffffffffffffffffff166352e057bd6001602360436063546040518563ffffffff1660e01b8152600401611e4a94939291906139bf565b600060405180830381600087803b158015611e6457600080fd5b505af1158015611e78573d6000803e3d6000fd5b505050507fb57af170726efb13bdbc419a2fbea1616f23b6299a0102c938709ebee359e503600160008054906101000a900460ff1642604051611ebd93929190613a0e565b60405180910390a17f71c87c38d8cfafce5c15236849e7136765c83ed216dfa648f2eb68a69d13e263602360008054906101000a900460ff1642604051611f0693929190613a84565b60405180910390a17f21f132f6fe7f4508b2a69ae2a7e676cac0329bdfb44fcebb19e2bab47d77c95b604360008054906101000a900460ff1642604051611f4f93929190613a84565b60405180910390a15b611f60612096565b60016000611f6e9190612549565b60436000611f7c9190612386565b60236000611f8a9190612386565b6063600090556000600d60008054906101000a900460ff1660ff1681611fac57fe5b0660ff161415611fc3576201518042016065819055505b565b600060019054906101000a900460ff1615611fdf57600080fd5b611fe7612127565b806068906002611ff892919061255c565b507f6c29c785e34244b1aa2388cc2446e1e2b8ed4f49b4b09f5a93bd5355e0de97aa423360405161202a929190613cb7565b60405180910390a150565b60716020528060005260406000206000915054906101000a900463ffffffff1681565b60706020528060005260406000206000915090505481565b606d60009054906101000a900473ffffffffffffffffffffffffffffffffffffffff1681565b606c60006101000a81549073ffffffffffffffffffffffffffffffffffffffff02191690556000606a819055506000606b8190555060008060016101000a81548160ff0219169083151502179055506022600081819054906101000a900461ffff168092919060010191906101000a81548161ffff021916908361ffff160217905550506377359400606481905550565b600060019054906101000a900460ff161561214157600080fd5b69021e19e0c9bab2400000606681905550601161215c612367565b11156121745769152d02c7e14af68000006066819055505b606654606f60003373ffffffffffffffffffffffffffffffffffffffff1673ffffffffffffffffffffffffffffffffffffffff1681526020019081526020016000205410156121f8576040517f08c379a00000000000000000000000000000000000000000000000000000000081526004016121ef90613bdf565b60405180910390fd5b60034201606481905550606f60003373ffffffffffffffffffffffffffffffffffffffff1673ffffffffffffffffffffffffffffffffffffffff16815260200190815260200160002054606a81905550602260009054906101000a900461ffff1661ffff16607160003373ffffffffffffffffffffffffffffffffffffffff1673ffffffffffffffffffffffffffffffffffffffff16815260200190815260200160002060006101000a81548163ffffffff021916908363ffffffff1602179055506001600060016101000a81548160ff021916908315150217905550606654606f60003373ffffffffffffffffffffffffffffffffffffffff1673ffffffffffffffffffffffffffffffffffffffff1681526020019081526020016000206000828254039250508190555033606c60006101000a81548173ffffffffffffffffffffffffffffffffffffffff021916908373ffffffffffffffffffffffffffffffffffffffff160217905550565b6000610e1062015180428161237857fe5b068161238057fe5b04905090565b508060200190612396919061259c565b50565b5060009055565b82602081019282156123e2579160200282015b828111156123e15782518290805190602001906123d19291906125b9565b50916020019190600101906123b3565b5b5090506123ef9190612647565b5090565b8260208101928215612422579160200282015b82811115612421578251825591602001919060010190612406565b5b50905061242f919061259c565b5090565b506000815560010160009055565b604051806104000160405280602090602082028036833780820191505090505090565b6040518061040001604052806020905b60608152602001906001900390816124745790505090565b826020601f016020900481019282156125155791602002820160005b838211156124e657835183826101000a81548160ff021916908360ff16021790555092602001926001016020816000010492830192600103026124a8565b80156125135782816101000a81549060ff02191690556001016020816000010492830192600103026124e6565b505b509050612522919061259c565b5090565b604051806104000160405280602090602082028036833780820191505090505090565b5080602001906125599190612647565b50565b826002810192821561258b579160200282015b8281111561258a57825182559160200191906001019061256f565b5b509050612598919061259c565b5090565b5b808211156125b557600081600090555060010161259d565b5090565b828054600181600116156101000203166002900490600052602060002090601f0160209004810192826125ef5760008555612636565b82601f1061260857805160ff1916838001178555612636565b82800160010185558215612636579182015b8281111561263557825182559160200191906001019061261a565b5b509050612643919061259c565b5090565b5b80821115612667576000818161265e919061266b565b50600101612648565b5090565b50805460018160011615610100020316600290046000825580601f1061269157506126b0565b601f0160209004906000526020600020908101906126af919061259c565b5b50565b6000813590506126c28161470e565b92915050565b600082601f8301126126d957600080fd5b60206126ec6126e782613eba565b613e89565b9150818360005b83811015612723578135860161270988826128b3565b8452602084019350602083019250506001810190506126f3565b5050505092915050565b600082601f83011261273e57600080fd5b600261275161274c82613ee0565b613e89565b9150818385602084028201111561276757600080fd5b60005b83811015612797578161277d8882612907565b84526020840193506020830192505060018101905061276a565b5050505092915050565b600082601f8301126127b257600080fd5b60206127c56127c082613f06565b613e89565b915081838560208402820111156127db57600080fd5b60005b8381101561280b57816127f18882612907565b8452602084019350602083019250506001810190506127de565b5050505092915050565b600082601f83011261282657600080fd5b602061283961283482613f2c565b613e89565b9150818385602084028201111561284f57600080fd5b60005b8381101561287f5781612865888261291c565b845260208401935060208301925050600181019050612852565b5050505092915050565b60008135905061289881614725565b92915050565b6000815190506128ad81614725565b92915050565b600082601f8301126128c457600080fd5b81356128d76128d282613f52565b613e89565b915080825260208301602083018583830111156128f357600080fd5b6128fe8382846141ac565b50505092915050565b6000813590506129168161473c565b92915050565b60008135905061292b81614753565b92915050565b60006020828403121561294357600080fd5b6000612951848285016126b3565b91505092915050565b600080600080610840858703121561297157600080fd5b600085013567ffffffffffffffff81111561298b57600080fd5b612997878288016126c8565b94505060206129a8878288016127a1565b9350506104206129ba878288016127a1565b9250506108206129cc87828801612907565b91505092959194509250565b6000604082840312156129ea57600080fd5b60006129f88482850161272d565b91505092915050565b60006104008284031215612a1457600080fd5b6000612a22848285016127a1565b91505092915050565b60006104008284031215612a3e57600080fd5b6000612a4c84828501612815565b91505092915050565b600060208284031215612a6757600080fd5b6000612a7584828501612889565b91505092915050565b600060208284031215612a9057600080fd5b6000612a9e8482850161289e565b91505092915050565b600060208284031215612ab957600080fd5b6000612ac784828501612907565b91505092915050565b6000612adc8383613587565b905092915050565b6000612af083836135f9565b905092915050565b6000612b0483836138d7565b60208301905092915050565b6000612b1c8383613904565b60208301905092915050565b612b318161412e565b82525050565b612b40816140bb565b82525050565b6000612b5182613fd3565b612b5b8185614061565b935083602082028501612b6d85613f82565b8060005b85811015612ba95784840389528151612b8a8582612ad0565b9450612b9583614020565b925060208a01995050600181019050612b71565b50829750879550505050505092915050565b6000612bc682613fde565b612bd08185614061565b935083602082028501612be285613f8c565b8060005b85811015612c1d57848403895281612bfe8582612ae4565b9450612c098361402d565b925060208a01995050600181019050612be6565b50829750879550505050505092915050565b612c3881613fe9565b612c42818461406c565b9250612c4d82613f96565b8060005b83811015612c7e578151612c658782612af8565b9650612c708361403a565b925050600181019050612c51565b505050505050565b612c8f81613ff4565b612c99818461406c565b9250612ca482613fa0565b8060005b83811015612cdc57612cb98261454a565b612cc38782612af8565b9650612cce83614047565b925050600181019050612ca8565b505050505050565b612ced81613fff565b612cf78184614077565b9250612d0282613faa565b8060005b83811015612d33578151612d1a8782612b10565b9650612d2583614054565b925050600181019050612d06565b505050505050565b612d448161400a565b612d4e8184614077565b925082612d5a83613fb4565b6000600115613087575b83600160200382011015613086578154612d8687612d8183614208565b613904565b602087019650612d9e87612d9983614326565b613904565b602087019650612db687612db183614444565b613904565b602087019650612dce87612dc983614492565b613904565b602087019650612de687612de1836144ac565b613904565b602087019650612dfe87612df9836144c6565b613904565b602087019650612e1687612e11836144e0565b613904565b602087019650612e2e87612e29836144fa565b613904565b602087019650612e4687612e4183614514565b613904565b602087019650612e5e87612e598361452e565b613904565b602087019650612e7687612e7183614222565b613904565b602087019650612e8e87612e898361423c565b613904565b602087019650612ea687612ea183614256565b613904565b602087019650612ebe87612eb983614270565b613904565b602087019650612ed687612ed18361428a565b613904565b602087019650612eee87612ee9836142a4565b613904565b602087019650612f0687612f01836142be565b613904565b602087019650612f1e87612f19836142d8565b613904565b602087019650612f3687612f31836142f2565b613904565b602087019650612f4e87612f498361430c565b613904565b602087019650612f6687612f6183614340565b613904565b602087019650612f7e87612f798361435a565b613904565b602087019650612f9687612f9183614374565b613904565b602087019650612fae87612fa98361438e565b613904565b602087019650612fc687612fc1836143a8565b613904565b602087019650612fde87612fd9836143c2565b613904565b602087019650612ff687612ff1836143dc565b613904565b60208701965061300e87613009836143f6565b613904565b6020870196506130268761302183614410565b613904565b60208701965061303e876130398361442a565b613904565b602087019650613056876130518361445e565b613904565b60208701965061306e8761306983614478565b613904565b60208701965060018301925050602081019050612d64565b5b6000156135525781546000156130b6576130a9876130a483614208565b613904565b6020870196506001820191505b6000156130dc576130cf876130ca83614326565b613904565b6020870196506001820191505b600015613102576130f5876130f083614444565b613904565b6020870196506001820191505b6000156131285761311b8761311683614492565b613904565b6020870196506001820191505b60001561314e576131418761313c836144ac565b613904565b6020870196506001820191505b6000156131745761316787613162836144c6565b613904565b6020870196506001820191505b60001561319a5761318d87613188836144e0565b613904565b6020870196506001820191505b6000156131c0576131b3876131ae836144fa565b613904565b6020870196506001820191505b6000156131e6576131d9876131d483614514565b613904565b6020870196506001820191505b60001561320c576131ff876131fa8361452e565b613904565b6020870196506001820191505b600015613232576132258761322083614222565b613904565b6020870196506001820191505b6000156132585761324b876132468361423c565b613904565b6020870196506001820191505b60001561327e576132718761326c83614256565b613904565b6020870196506001820191505b6000156132a4576132978761329283614270565b613904565b6020870196506001820191505b6000156132ca576132bd876132b88361428a565b613904565b6020870196506001820191505b6000156132f0576132e3876132de836142a4565b613904565b6020870196506001820191505b6000156133165761330987613304836142be565b613904565b6020870196506001820191505b60001561333c5761332f8761332a836142d8565b613904565b6020870196506001820191505b6000156133625761335587613350836142f2565b613904565b6020870196506001820191505b6000156133885761337b876133768361430c565b613904565b6020870196506001820191505b6000156133ae576133a18761339c83614340565b613904565b6020870196506001820191505b6000156133d4576133c7876133c28361435a565b613904565b6020870196506001820191505b6000156133fa576133ed876133e883614374565b613904565b6020870196506001820191505b600015613420576134138761340e8361438e565b613904565b6020870196506001820191505b6000156134465761343987613434836143a8565b613904565b6020870196506001820191505b60001561346c5761345f8761345a836143c2565b613904565b6020870196506001820191505b6000156134925761348587613480836143dc565b613904565b6020870196506001820191505b6000156134b8576134ab876134a6836143f6565b613904565b6020870196506001820191505b6000156134de576134d1876134cc83614410565b613904565b6020870196506001820191505b600015613504576134f7876134f28361442a565b613904565b6020870196506001820191505b60001561352a5761351d876135188361445e565b613904565b6020870196506001820191505b600015613550576135438761353e83614478565b613904565b6020870196506001820191505b505b505050505050565b613563816140cd565b82525050565b61357281614140565b82525050565b61358181614164565b82525050565b600061359282614015565b61359c8185614082565b93506135ac8185602086016141bb565b6135b58161455d565b840191505092915050565b60006135cb82614015565b6135d58185614093565b93506135e58185602086016141bb565b6135ee8161455d565b840191505092915050565b600081546001811660008114613616576001811461363c57613680565b607f60028304166136278187614082565b955060ff198316865260208601935050613680565b6002820461364a8187614082565b955061365585613fbe565b60005b8281101561367757815481890152600182019150602081019050613658565b80880195505050505b505092915050565b6000613695600483614093565b91507f6f646473000000000000000000000000000000000000000000000000000000006000830152602082019050919050565b60006136d5600b83614093565b91507f4c6f772042616c616e63650000000000000000000000000000000000000000006000830152602082019050919050565b6000613715600c83614093565b91507f556e6465722052657669657700000000000000000000000000000000000000006000830152602082019050919050565b6000613755600783614093565b91507f726573756c7473000000000000000000000000000000000000000000000000006000830152602082019050919050565b6000613795601183614093565b91507f6e6f20776420647572696e6720766f74650000000000000000000000000000006000830152602082019050919050565b60006137d5600783614093565b91507f696e697469616c000000000000000000000000000000000000000000000000006000830152602082019050919050565b6000613815600683614093565b91507f706172616d7300000000000000000000000000000000000000000000000000006000830152602082019050919050565b6000613855600883614093565b91507f6f64647353656e740000000000000000000000000000000000000000000000006000830152602082019050919050565b6000613895601183614093565b91507f4e6f7420656e6f75676820746f6b656e730000000000000000000000000000006000830152602082019050919050565b6138d1816140d9565b82525050565b6138e081614107565b82525050565b6138ef81614107565b82525050565b6138fe81614111565b82525050565b61390d81614121565b82525050565b61391c81614121565b82525050565b60006020820190506139376000830184612b37565b92915050565b60006060820190506139526000830186612b28565b61395f6020830185612b28565b61396c60408301846138e6565b949350505050565b60006040820190506139896000830185612b28565b61399660208301846138e6565b9392505050565b600060208201905081810360008301526139b78184612b46565b905092915050565b60006108408201905081810360008301526139da8187612bbb565b90506139e96020830186612c86565b6139f7610420830185612c86565b613a056108208301846138e6565b95945050505050565b60006060820190508181036000830152613a288186612bbb565b9050613a376020830185613913565b613a4460408301846138e6565b949350505050565b600061040082019050613a626000830184612c2f565b92915050565b600061040082019050613a7e6000830184612c86565b92915050565b600061044082019050613a9a6000830186612c86565b613aa8610400830185613913565b613ab66104208301846138e6565b949350505050565b600061040082019050613ad46000830184612ce4565b92915050565b600061040082019050613af06000830184612d3b565b92915050565b600061044082019050613b0c6000830186612d3b565b613b1a610400830185613913565b613b286104208301846138e6565b949350505050565b6000602082019050613b45600083018461355a565b92915050565b6000602082019050613b606000830184613569565b92915050565b6000602082019050613b7b6000830184613578565b92915050565b60006020820190508181036000830152613b9b81846135c0565b905092915050565b60006060820190508181036000830152613bbc81613688565b9050613bcb60208301856138e6565b613bd86040830184612b28565b9392505050565b60006020820190508181036000830152613bf8816136c8565b9050919050565b60006020820190508181036000830152613c1881613708565b9050919050565b60006060820190508181036000830152613c3881613748565b9050613c4760208301856138e6565b613c546040830184612b28565b9392505050565b60006020820190508181036000830152613c7481613788565b9050919050565b60006060820190508181036000830152613c94816137c8565b9050613ca360208301856138e6565b613cb06040830184612b28565b9392505050565b60006060820190508181036000830152613cd081613808565b9050613cdf60208301856138e6565b613cec6040830184612b28565b9392505050565b60006060820190508181036000830152613d0c81613848565b9050613d1b60208301856138e6565b613d286040830184612b37565b9392505050565b60006020820190508181036000830152613d4881613888565b9050919050565b6000602082019050613d6460008301846138c8565b92915050565b6000602082019050613d7f60008301846138e6565b92915050565b6000604082019050613d9a60008301856138e6565b613da7602083018461355a565b9392505050565b6000604082019050613dc360008301856138e6565b613dd060208301846138e6565b9392505050565b6000606082019050613dec60008301866138e6565b613df960208301856138e6565b613e0660408301846138e6565b949350505050565b6000608082019050613e2360008301876138e6565b613e3060208301866138e6565b613e3d6040830185613913565b613e4a60608301846138e6565b95945050505050565b6000602082019050613e6860008301846138f5565b92915050565b6000602082019050613e836000830184613913565b92915050565b6000604051905081810181811067ffffffffffffffff82111715613eb057613eaf614548565b5b8060405250919050565b600067ffffffffffffffff821115613ed557613ed4614548565b5b602082029050919050565b600067ffffffffffffffff821115613efb57613efa614548565b5b602082029050919050565b600067ffffffffffffffff821115613f2157613f20614548565b5b602082029050919050565b600067ffffffffffffffff821115613f4757613f46614548565b5b602082029050919050565b600067ffffffffffffffff821115613f6d57613f6c614548565b5b601f19601f8301169050602081019050919050565b6000819050919050565b6000819050919050565b6000819050919050565b6000819050919050565b6000819050919050565b6000819050919050565b60008190508160005260206000209050919050565b600060209050919050565b600060209050919050565b600060209050919050565b600060209050919050565b600060209050919050565b600060209050919050565b600081519050919050565b6000602082019050919050565b6000600182019050919050565b6000602082019050919050565b6000600182019050919050565b6000602082019050919050565b600081905092915050565b600081905092915050565b600081905092915050565b600082825260208201905092915050565b600082825260208201905092915050565b6000819050919050565b600060ff82169050919050565b60006140c6826140e7565b9050919050565b60008115159050919050565b600061ffff82169050919050565b600073ffffffffffffffffffffffffffffffffffffffff82169050919050565b6000819050919050565b600063ffffffff82169050919050565b600060ff82169050919050565b600061413982614188565b9050919050565b600061414b82614152565b9050919050565b600061415d826140e7565b9050919050565b600061416f82614176565b9050919050565b6000614181826140e7565b9050919050565b60006141938261419a565b9050919050565b60006141a5826140e7565b9050919050565b82818337600083830152505050565b60005b838110156141d95780820151818401526020810190506141be565b838111156141e8576000848401525b50505050565b60006142016141fc8361456e565b6140a4565b9050919050565b600061421b6142168361456e565b6140ae565b9050919050565b6000614235614230836146da565b6140ae565b9050919050565b600061424f61424a836146e7565b6140ae565b9050919050565b600061426961426483614701565b6140ae565b9050919050565b600061428361427e8361457b565b6140ae565b9050919050565b600061429d61429883614588565b6140ae565b9050919050565b60006142b76142b283614595565b6140ae565b9050919050565b60006142d16142cc836145a2565b6140ae565b9050919050565b60006142eb6142e6836145af565b6140ae565b9050919050565b6000614305614300836145bc565b6140ae565b9050919050565b600061431f61431a836145c9565b6140ae565b9050919050565b6000614339614334836146f4565b6140ae565b9050919050565b600061435361434e836145d6565b6140ae565b9050919050565b600061436d614368836145e3565b6140ae565b9050919050565b6000614387614382836145fd565b6140ae565b9050919050565b60006143a161439c8361460a565b6140ae565b9050919050565b60006143bb6143b683614617565b6140ae565b9050919050565b60006143d56143d083614624565b6140ae565b9050919050565b60006143ef6143ea83614631565b6140ae565b9050919050565b60006144096144048361463e565b6140ae565b9050919050565b600061442361441e8361464b565b6140ae565b9050919050565b600061443d61443883614658565b6140ae565b9050919050565b6000614457614452836145f0565b6140ae565b9050919050565b600061447161446c83614665565b6140ae565b9050919050565b600061448b61448683614672565b6140ae565b9050919050565b60006144a56144a08361467f565b6140ae565b9050919050565b60006144bf6144ba8361468c565b6140ae565b9050919050565b60006144d96144d483614699565b6140ae565b9050919050565b60006144f36144ee836146a6565b6140ae565b9050919050565b600061450d614508836146b3565b6140ae565b9050919050565b6000614527614522836146c0565b6140ae565b9050919050565b600061454161453c836146cd565b6140ae565b9050919050565bfe5b600061455682546141ee565b9050919050565b6000601f19601f8301169050919050565b60008160001c9050919050565b60008160681c9050919050565b60008160701c9050919050565b60008160781c9050919050565b60008160801c9050919050565b60008160881c9050919050565b60008160901c9050919050565b60008160981c9050919050565b60008160a01c9050919050565b60008160a81c9050919050565b60008160101c9050919050565b60008160b01c9050919050565b60008160b81c9050919050565b60008160c01c9050919050565b60008160c81c9050919050565b60008160d01c9050919050565b60008160d81c9050919050565b60008160e01c9050919050565b60008160e81c9050919050565b60008160f01c9050919050565b60008160f81c9050919050565b60008160181c9050919050565b60008160201c9050919050565b60008160281c9050919050565b60008160301c9050919050565b60008160381c9050919050565b60008160401c9050919050565b60008160481c9050919050565b60008160501c9050919050565b60008160581c9050919050565b60008160081c9050919050565b60008160601c9050919050565b614717816140bb565b811461472257600080fd5b50565b61472e816140cd565b811461473957600080fd5b50565b61474581614107565b811461475057600080fd5b50565b61475c81614121565b811461476757600080fd5b5056fea2646970667358221220aa267b70f4de59f282bd42c0164f678476ad04869c922e2f9ec419d27c581bac64736f6c63430007040033",
  "immutableReferences": {},
  "source": "pragma solidity ^0.7.4;\r\npragma experimental ABIEncoderV2;\r\nimport \"./Token.sol\";\r\nimport \"./Betting.sol\";\r\n\r\n/**\r\nSPDX-License-Identifier: MIT\r\n*/\r\n\r\ncontract Oracle {\r\n    constructor(address payable bettingk, address _token) {\r\n        bettingContract = Betting(bettingk);\r\n        token = Token(_token);\r\n        timer = 2e9;\r\n        betEpoch = 1;\r\n    }\r\n\r\n    // after each settlement, a new epoch commences. Bets cannot consummate on games referring to prior epochs\r\n    uint8 public betEpoch;\r\n    // This is true if there is a proposal under consideration, other proposals are not allowed while a current proposal\r\n    // is under review\r\n    bool public underReview;\r\n    /** the schedule is a record of \"sport:home:away\", such as \"NFL:NYG:SF\" for us football, New York Giants vs San Francisco */\r\n    string[32] public propSchedule;\r\n    // result are coded where 0 is a tie/cancellation or postponement, 1 for home team win, 2 for away team win.\r\n    uint8[32] public propResults;\r\n    // this tracking number is for submissions, needed for tracking whether someone already voted on a data proposal\r\n    // incremented at each processing\r\n    uint16 public propNumber;\r\n    // propStartTime in UTC is used to stop active betting. No bets are taken after this time.\r\n    uint256[32] public propStartTime;\r\n    // odds are entered as decimal odds, such that 1.909 is 909, and 2.543 is 1543.\r\n    // betAmount*(propOdds/1000+1) is the gross payoff for a winning bet,\r\n    // betAmount*propOdds/1000 is the next payoff for a winning bet\r\n    uint256[32] public propOdds;\r\n    // this is the UTC at which LPs can no longer withdraw or deposit until the next settlement\r\n    // it is the time of the earliest game start. It is more efficient to load this in separately rather than\r\n    // take the minimum of the times it the 'propStartTime' array\r\n    uint256 public earliestStart;\r\n    // timer is used so that each proposal has at least a 3 hours for voters to respond\r\n    uint256 public timer;\r\n    // timerEthDiv is used so that each quarterly dividend allocation gives token holders 24 hours to claim their eth\r\n    // without fear of dilution by double counting.\r\n    uint256 public timerEthDiv;\r\n    // bond for submitting a proposal\r\n    uint256 public bond;\r\n    // tracks the current local token balance of active oracle contract administrators, as\r\n    // documented by the deposit of their tokens within this contract\r\n    uint256 public localSupply;\r\n    // for 'minimum bet size' and 'concentration limit'\r\n    // these variables have little ability to scam anyone, so they have a shorter review time\r\n    uint256[2] public propMiscParams;\r\n    // A proposal goes through via a simple rule of more yes than no votes. Thus, a trivial vote does not need more yes votes\r\n    // if a troll rejects a vote that has few Yes votes, a vote later than evening takes a large bond amount, so\r\n    // and submitters should anticipate such an event\r\n    uint256 public voteYes;\r\n    uint256 public voteNo;\r\n    // keeps track of those who supplied data proposals. Proposers have to deposit tokens as a bond, and if their\r\n    // proposal is rejected, they lose that bond.\r\n    // thus, there is no selfish incentive for non-proposers to reject a proposal, other than it hurts the value of\r\n    // their tokens. A proposer has only downside directly, but major token holders appreciate that the contract needs\r\n    // administering. It should be  unambiguous. While odds can differ across alternative betting sites\r\n    // arbitrage keeps them within the vig\r\n    address public proposer;\r\n    // this allows the oracle administrators to vote on new betting/oracle contracts without withdrawing their tokens\r\n    Token public token;\r\n    Betting public bettingContract;\r\n    // these are tokens held in the custody of this contract. Only tokens deposited in this contract can\r\n    // be used for voting, or for claiming ether at the end of the season. Note these tokens are owned by the oracle contract\r\n    // as far as the ERC-20 contract is concerned, but they are credited to the token depositors within this contract for\r\n    // voting and receiving eth\r\n    mapping(address => uint256) public tokenBalances;\r\n    // this variable allows the token contract to lock tokens in the oracle contract if a token holder has voted\r\n    // on a proposal in the token contract. It prevents double-voting on token votes.\r\n    mapping(address => uint256) public tokenVoteTime;\r\n    // keeps track of the proposals in this contract, so that token holders can only vote once for each proposal\r\n    // with the tokens they have in this contract. They cannot withdraw their tokens until a proposal under review has finished\r\n    mapping(address => uint32) public voteTracker;\r\n\r\n    event Proposal(string process, uint256 timestamp, address proposer);\r\n\r\n    event ResultsPosted(uint8[32] winner, uint8 epoch, uint256 timestamp);\r\n\r\n    event DecOddsPosted(uint256[32] decOdds, uint8 epoch, uint256 timestamp);\r\n\r\n    event ParamsPosted(\r\n        uint256 minBet,\r\n        uint256 concLimit,\r\n        uint8 epoch,\r\n        uint256 timestamp\r\n    );\r\n\r\n    event SchedulePosted(string[32] sched, uint8 epoch, uint256 timestamp);\r\n\r\n    event StartTimesPosted(\r\n        uint256[32] starttimes,\r\n        uint8 epoch,\r\n        uint256 timestamp\r\n    );\r\n\r\n    function vote(bool sendData) external {\r\n        // voter must have votes to allocate\r\n        require(tokenBalances[msg.sender] > 0);\r\n        // can only vote if there is a proposal\r\n        require(underReview);\r\n        // voter must not have voted on this proposal\r\n        require(voteTracker[msg.sender] != propNumber);\r\n        // this prevents this account from voting again on this data proposal (see above)\r\n        voteTracker[msg.sender] = propNumber;\r\n        // votes are simply one's entire token balance deposited in this oracle contract\r\n        if (sendData) {\r\n            voteYes += tokenBalances[msg.sender];\r\n        } else {\r\n            voteNo += tokenBalances[msg.sender];\r\n        }\r\n    }\r\n\r\n    function voteToken(bool isYes) external {\r\n        // voter must have votes\r\n        require(tokenBalances[msg.sender] > 0);\r\n        // voter must not have voted\r\n        require(tokenVoteTime[msg.sender] < block.timestamp);\r\n        // voting cannot occur until the proposal period has ended\r\n        // votes for token proposals are yes/no, like those for data submissions in this contract\r\n        token.voteFromOracle(tokenBalances[msg.sender], isYes);\r\n        // change to 7 days\r\n        tokenVoteTime[msg.sender] = block.timestamp + 7 seconds;\r\n    }\r\n\r\n    // this allows the oracle contract to receive eth from the betting contract\r\n    receive() external payable {}\r\n\r\n    function dividendClaim() external {\r\n        // eth dividends are claimed every 13 periods.\r\n        require(betEpoch % 13 == 0);\r\n        require(tokenBalances[msg.sender] > 0);\r\n        uint256 sharesToSell = tokenBalances[msg.sender];\r\n        tokenBalances[msg.sender] = 0;\r\n        token.transfer(msg.sender, sharesToSell);\r\n        // Once a quarter there is a window where token depositors in this contract\r\n        // access their pro-rata share of the eth transferred to this contract from the betting contracteth back with their tokens\r\n        uint256 ethTrans = (sharesToSell * address(this).balance) / localSupply;\r\n        payable(msg.sender).transfer(ethTrans);\r\n        localSupply -= sharesToSell;\r\n    }\r\n\r\n    function initPost(\r\n        string[32] memory teamsched,\r\n        uint256[32] memory starts,\r\n        uint256[32] memory decimalOdds,\r\n        uint256 earlyStart\r\n    ) external {\r\n        // this requirement makes sure a post occurs only if there is not a current post under consideration, or\r\n        // it is an amend for an earlier post with these data\r\n        require(!underReview, \"Under Review\");\r\n        post();\r\n        propSchedule = teamsched;\r\n        propStartTime = starts;\r\n        propOdds = decimalOdds;\r\n        earliestStart = earlyStart;\r\n        // this tells users that an initial proposal has been sent, which is useful for oracle administrators who are monitoring this contract\r\n        emit Proposal(\"initial\", block.timestamp, msg.sender);\r\n    }\r\n\r\n    function oddsPost(uint256[32] memory adjDecimalOdds) external {\r\n        require(!underReview);\r\n        post();\r\n        emit Proposal(\"oddsSent\", block.timestamp, proposer);\r\n        propOdds = adjDecimalOdds;\r\n        // this tells users that an odds proposal has been sent, which is useful for oracle administrators who are monitoring this contract\r\n        emit Proposal(\"odds\", block.timestamp, msg.sender);\r\n    }\r\n\r\n    function settlePost(uint8[32] memory resultVector) external {\r\n        // this prevents a settle post when other posts have been made\r\n        require(!underReview);\r\n        post();\r\n        propResults = resultVector;\r\n        // this tells users that a results proposal has been sent, which is useful for oracle administrators who are monitoring this contract\r\n        emit Proposal(\"results\", block.timestamp, msg.sender);\r\n    }\r\n\r\n    function paramPost(uint256[2] memory minbetMaxParam) external {\r\n        // this prevents a settle post when other posts have been made\r\n        require(!underReview);\r\n        post();\r\n        propMiscParams = minbetMaxParam;\r\n        // this tells users that a params proposal has been sent, which is useful for oracle administrators who are monitoring this contract\r\n        emit Proposal(\"params\", block.timestamp, msg.sender);\r\n    }\r\n\r\n    function initProcess() external {\r\n        // this prevents an odds or results proposal from being sent\r\n        require(propStartTime[0] != 0);\r\n\r\n        // needs at least 3 hours or a clear majority decision\r\n        // there are only 10 million tokens\r\n        // require (block.timestamp > timer || voteYes > 5e24 ||  voteNo > 5e24);\r\n        // only sent if 'null' vote does not win\r\n        if (voteYes > voteNo) {\r\n            // successful submitter gets their bonded tokens back\r\n            tokenBalances[proposer] += bond;\r\n            // sends to the betting contract\r\n            bettingContract.transmitInit(\r\n                propSchedule,\r\n                propStartTime,\r\n                propOdds,\r\n                earliestStart\r\n            );\r\n            emit SchedulePosted(propSchedule, betEpoch, block.timestamp);\r\n            emit StartTimesPosted(propStartTime, betEpoch, block.timestamp);\r\n            emit DecOddsPosted(propOdds, betEpoch, block.timestamp);\r\n        }\r\n        // resets various data (eg, timer)\r\n        reset();\r\n        // resets data arrays for next submission\r\n        delete propSchedule;\r\n        delete propOdds;\r\n        delete propStartTime;\r\n        delete earliestStart;\r\n        if (betEpoch % 13 == 0) timerEthDiv = block.timestamp + 1 days;\r\n    }\r\n\r\n    // these have the same logic as for the initProcess, just for the different datasets\r\n    function oddsProcess() external {\r\n        // this prevents an 'initProcess' set being sent as an odds transmit\r\n        require(propStartTime[0] == 0 && propOdds[0] != 0);\r\n        // needs at least 3 hours or a clear majority decision\r\n        // require (block.timestamp > timer || voteYes > 5e5 ether ||  voteNo > 5e5 ether);\r\n        if (voteYes > voteNo) {\r\n            // proposer gets back their bonding amount\r\n            tokenBalances[proposer] += bond;\r\n            bettingContract.transmitDecOdds(propOdds);\r\n            emit DecOddsPosted(propOdds, betEpoch, block.timestamp);\r\n        }\r\n        // resets various data (eg, timer)\r\n        reset();\r\n        delete propOdds;\r\n    }\r\n\r\n    function settleProcess() external {\r\n        require(propResults[0] != 0);\r\n        // needs at least 3 hours or a clear majority decision\r\n        // require (block.timestamp > timer || voteYes > 5e24 || voteNo > 5e24);\r\n        if (voteYes > voteNo) {\r\n            // proposer gets back their bonding amount\r\n            tokenBalances[proposer] += bond;\r\n            bettingContract.settle(propResults);\r\n            betEpoch++;\r\n            emit ResultsPosted(propResults, betEpoch, block.timestamp);\r\n        }\r\n        // resets various data (eg, timer)\r\n        reset();\r\n        delete propResults;\r\n    }\r\n\r\n    function paramProcess() external {\r\n        require(propMiscParams[0] != 0);\r\n        // needs at least 3 hours or a clear majority decision\r\n        // require (block.timestamp > timer || voteYes > 5e24 || voteNo > 5e24);\r\n        if (voteYes > voteNo) {\r\n            tokenBalances[proposer] += bond;\r\n            bettingContract.adjustParams(propMiscParams[0], propMiscParams[1]);\r\n            emit ParamsPosted(\r\n                propMiscParams[0],\r\n                propMiscParams[1],\r\n                betEpoch,\r\n                block.timestamp\r\n            );\r\n        }\r\n        // resets various data (eg, timer)\r\n        reset();\r\n        delete propMiscParams;\r\n    }\r\n\r\n    function withdrawTokens(uint256 amt) external {\r\n        require(\r\n            amt <= localSupply && amt <= tokenBalances[msg.sender],\r\n            \"Not enough tokens\"\r\n        );\r\n        // this prevents voting more than once or oracle proposals with token balance.\r\n        require(!underReview, \"no wd during vote\");\r\n        // prevents multiple votes on token contract proposals\r\n        require(tokenVoteTime[msg.sender] < block.timestamp);\r\n        tokenBalances[msg.sender] -= amt;\r\n        localSupply -= amt;\r\n        token.transfer(msg.sender, amt);\r\n    }\r\n\r\n    function depositTokens(uint256 amt) external {\r\n        // cannot add tokens during eth dividend capture period\r\n        // this prevents multiple withdrawals from the same person using different accounts\r\n        require(block.timestamp > timerEthDiv);\r\n        localSupply += amt;\r\n        tokenBalances[msg.sender] += amt;\r\n        token.transferFrom(msg.sender, address(this), amt);\r\n    }\r\n\r\n    // these allow for an easy way to grab an array in web3.js\r\n    function showSched() external view returns (string[32] memory teamSched) {\r\n        teamSched = propSchedule;\r\n    }\r\n\r\n    function showpropStartTimes()\r\n        external\r\n        view\r\n        returns (uint256[32] memory teamStart)\r\n    {\r\n        teamStart = propStartTime;\r\n    }\r\n\r\n    function showResults()\r\n        external\r\n        view\r\n        returns (uint8[32] memory resultVector)\r\n    {\r\n        resultVector = propResults;\r\n    }\r\n\r\n    function showOdds() external view returns (uint256[32] memory adjOdds) {\r\n        adjOdds = propOdds;\r\n    }\r\n\r\n    function showVotes()\r\n        external\r\n        view\r\n        returns (\r\n            uint256 proposalEndTime,\r\n            uint256 yesVotes,\r\n            uint256 noVotes\r\n        )\r\n    {\r\n        proposalEndTime = timer;\r\n        yesVotes = voteYes;\r\n        noVotes = voteNo;\r\n    }\r\n\r\n    function post() internal {\r\n        // change hourOfDay to 10\r\n        // constraining the hourOfDay to be >10 gives users a block of time where they can be confident that their\r\n        // inattention to the contract poses no risk of a malicious data submission.\r\n        // require (hourOfDay() > 1);\r\n        // cannot repost while a current submission is under review\r\n        require(!underReview);\r\n        // small holders with littleownership may troll the contract with useless data just to screw things up\r\n        // later in the day, a higher threshold is needed to submit proposals\r\n        // requiring an exponential increase in tokens caps the number of submissions\r\n        bond = 1e4 ether;\r\n        // to mitigate potential trolling problems, only very large token holders can  propose later in the day\r\n        if (hourOfDay() > 17) bond = 1e5 ether;\r\n        require(tokenBalances[msg.sender] >= bond, \"Low Balance\");\r\n        // this also gives voters at least 3 hours after last proposed post\r\n        // to vote on the set of proposed submissions\r\n        timer = block.timestamp + 3 seconds;\r\n        voteYes = tokenBalances[msg.sender];\r\n        // this prevents proposer from voting again with his tokens on this submission\r\n        voteTracker[msg.sender] = propNumber;\r\n        underReview = true;\r\n        // check above makes this safemath\r\n        tokenBalances[msg.sender] -= bond;\r\n        proposer = msg.sender;\r\n    }\r\n\r\n    function reset() internal {\r\n        // if the collective has sufficient time, or the majority has a preference registered, one can submit asap\r\n        delete proposer;\r\n        voteYes = 0;\r\n        voteNo = 0;\r\n        underReview = false;\r\n        propNumber++;\r\n        timer = 2e9;\r\n    }\r\n\r\n    // this is used so users do not have to delegate someone else to monitor the contract 24/7\r\n    // 86400 is seconds in a day, and 3600 is seconds in an hour\r\n    function hourOfDay() internal view returns (uint256 hour1) {\r\n        hour1 = (block.timestamp % 86400) / 3600;\r\n    }\r\n}\r\n",
  "sourcePath": "/home/yash/Development/freelancing/dapps/test8/src/contracts/solidity/Oracle.sol",
  "compiler": {
    "name": "solc",
    "version": "0.7.4+commit.3f05b770.Emscripten.clang"
  },
  "schemaVersion": "3.3.3",
  "updatedAt": "2021-01-02T07:25:22.746Z",
  "networkType": "ethereum",
  "devdoc": {
    "kind": "dev",
    "methods": {},
    "version": 1
  },
  "userdoc": {
    "kind": "user",
    "methods": {
      "propSchedule(uint256)": {
        "notice": "the schedule is a record of \"sport:home:away\", such as \"NFL:NYG:SF\" for us football, New York Giants vs San Francisco "
      }
    },
    "notice": "SPDX-License-Identifier: MIT",
    "version": 1
  }
}