{
  "contractName": "Token",
  "abi": [
    {
      "inputs": [],
      "stateMutability": "nonpayable",
      "type": "constructor"
    },
    {
      "anonymous": false,
      "inputs": [
        {
          "indexed": false,
          "internalType": "address",
          "name": "_owner",
          "type": "address"
        },
        {
          "indexed": false,
          "internalType": "address",
          "name": "_spender",
          "type": "address"
        },
        {
          "indexed": false,
          "internalType": "uint256",
          "name": "_value",
          "type": "uint256"
        }
      ],
      "name": "Approval",
      "type": "event"
    },
    {
      "anonymous": false,
      "inputs": [
        {
          "indexed": false,
          "internalType": "address",
          "name": "_creator",
          "type": "address"
        },
        {
          "indexed": false,
          "internalType": "address",
          "name": "contractaddress",
          "type": "address"
        },
        {
          "indexed": false,
          "internalType": "address",
          "name": "oracleaddress",
          "type": "address"
        }
      ],
      "name": "Proposal",
      "type": "event"
    },
    {
      "anonymous": false,
      "inputs": [
        {
          "indexed": false,
          "internalType": "address",
          "name": "_from",
          "type": "address"
        },
        {
          "indexed": false,
          "internalType": "address",
          "name": "_to",
          "type": "address"
        },
        {
          "indexed": false,
          "internalType": "uint256",
          "name": "_value",
          "type": "uint256"
        }
      ],
      "name": "Transfer",
      "type": "event"
    },
    {
      "anonymous": false,
      "inputs": [
        {
          "indexed": false,
          "internalType": "address",
          "name": "contrakt",
          "type": "address"
        },
        {
          "indexed": false,
          "internalType": "address",
          "name": "orakle",
          "type": "address"
        },
        {
          "indexed": false,
          "internalType": "address",
          "name": "proposer",
          "type": "address"
        },
        {
          "indexed": false,
          "internalType": "uint256",
          "name": "numYes",
          "type": "uint256"
        },
        {
          "indexed": false,
          "internalType": "uint256",
          "name": "numNo",
          "type": "uint256"
        }
      ],
      "name": "VoteOutcome",
      "type": "event"
    },
    {
      "inputs": [],
      "name": "MINT_AMT",
      "outputs": [
        {
          "internalType": "uint256",
          "name": "",
          "type": "uint256"
        }
      ],
      "stateMutability": "view",
      "type": "function",
      "constant": true
    },
    {
      "inputs": [],
      "name": "bettingContract",
      "outputs": [
        {
          "internalType": "address",
          "name": "",
          "type": "address"
        }
      ],
      "stateMutability": "view",
      "type": "function",
      "constant": true
    },
    {
      "inputs": [],
      "name": "oracleContract",
      "outputs": [
        {
          "internalType": "address",
          "name": "",
          "type": "address"
        }
      ],
      "stateMutability": "view",
      "type": "function",
      "constant": true
    },
    {
      "inputs": [
        {
          "internalType": "uint256",
          "name": "",
          "type": "uint256"
        }
      ],
      "name": "proposedAddresses",
      "outputs": [
        {
          "internalType": "address",
          "name": "",
          "type": "address"
        }
      ],
      "stateMutability": "view",
      "type": "function",
      "constant": true
    },
    {
      "inputs": [],
      "name": "proposer",
      "outputs": [
        {
          "internalType": "address",
          "name": "",
          "type": "address"
        }
      ],
      "stateMutability": "view",
      "type": "function",
      "constant": true
    },
    {
      "inputs": [],
      "name": "timer",
      "outputs": [
        {
          "internalType": "uint256",
          "name": "",
          "type": "uint256"
        }
      ],
      "stateMutability": "view",
      "type": "function",
      "constant": true
    },
    {
      "inputs": [
        {
          "internalType": "address",
          "name": "",
          "type": "address"
        }
      ],
      "name": "voteMonitor",
      "outputs": [
        {
          "internalType": "uint32",
          "name": "",
          "type": "uint32"
        }
      ],
      "stateMutability": "view",
      "type": "function",
      "constant": true
    },
    {
      "inputs": [],
      "name": "voteNo",
      "outputs": [
        {
          "internalType": "uint256",
          "name": "",
          "type": "uint256"
        }
      ],
      "stateMutability": "view",
      "type": "function",
      "constant": true
    },
    {
      "inputs": [],
      "name": "votePropNumber",
      "outputs": [
        {
          "internalType": "uint32",
          "name": "",
          "type": "uint32"
        }
      ],
      "stateMutability": "view",
      "type": "function",
      "constant": true
    },
    {
      "inputs": [],
      "name": "voteYes",
      "outputs": [
        {
          "internalType": "uint256",
          "name": "",
          "type": "uint256"
        }
      ],
      "stateMutability": "view",
      "type": "function",
      "constant": true
    },
    {
      "inputs": [
        {
          "internalType": "address",
          "name": "_spender",
          "type": "address"
        },
        {
          "internalType": "uint256",
          "name": "_value",
          "type": "uint256"
        }
      ],
      "name": "approve",
      "outputs": [
        {
          "internalType": "bool",
          "name": "success",
          "type": "bool"
        }
      ],
      "stateMutability": "nonpayable",
      "type": "function"
    },
    {
      "inputs": [
        {
          "internalType": "address",
          "name": "_to",
          "type": "address"
        },
        {
          "internalType": "uint256",
          "name": "_value",
          "type": "uint256"
        }
      ],
      "name": "transfer",
      "outputs": [
        {
          "internalType": "bool",
          "name": "success",
          "type": "bool"
        }
      ],
      "stateMutability": "nonpayable",
      "type": "function"
    },
    {
      "inputs": [
        {
          "internalType": "address",
          "name": "_from",
          "type": "address"
        },
        {
          "internalType": "address",
          "name": "_to",
          "type": "address"
        },
        {
          "internalType": "uint256",
          "name": "_value",
          "type": "uint256"
        }
      ],
      "name": "transferFrom",
      "outputs": [
        {
          "internalType": "bool",
          "name": "success",
          "type": "bool"
        }
      ],
      "stateMutability": "nonpayable",
      "type": "function"
    },
    {
      "inputs": [
        {
          "internalType": "bool",
          "name": "isYes",
          "type": "bool"
        }
      ],
      "name": "vote",
      "outputs": [],
      "stateMutability": "nonpayable",
      "type": "function"
    },
    {
      "inputs": [
        {
          "internalType": "uint256",
          "name": "tokenVotes",
          "type": "uint256"
        },
        {
          "internalType": "bool",
          "name": "isYes",
          "type": "bool"
        }
      ],
      "name": "voteFromOracle",
      "outputs": [],
      "stateMutability": "nonpayable",
      "type": "function"
    },
    {
      "inputs": [],
      "name": "processVote",
      "outputs": [],
      "stateMutability": "nonpayable",
      "type": "function"
    },
    {
      "inputs": [
        {
          "internalType": "address",
          "name": "propContract",
          "type": "address"
        },
        {
          "internalType": "address",
          "name": "propOracle",
          "type": "address"
        }
      ],
      "name": "proposeContract",
      "outputs": [],
      "stateMutability": "nonpayable",
      "type": "function"
    },
    {
      "inputs": [],
      "name": "showProposal",
      "outputs": [
        {
          "internalType": "address",
          "name": "contractAddress",
          "type": "address"
        },
        {
          "internalType": "address",
          "name": "oracleAddress",
          "type": "address"
        },
        {
          "internalType": "uint256",
          "name": "yesvote",
          "type": "uint256"
        },
        {
          "internalType": "uint256",
          "name": "novote",
          "type": "uint256"
        }
      ],
      "stateMutability": "view",
      "type": "function",
      "constant": true
    },
    {
      "inputs": [
        {
          "internalType": "address",
          "name": "_owner",
          "type": "address"
        }
      ],
      "name": "balanceOf",
      "outputs": [
        {
          "internalType": "uint256",
          "name": "balance",
          "type": "uint256"
        }
      ],
      "stateMutability": "view",
      "type": "function",
      "constant": true
    },
    {
      "inputs": [],
      "name": "totalSupply",
      "outputs": [
        {
          "internalType": "uint256",
          "name": "supply",
          "type": "uint256"
        }
      ],
      "stateMutability": "view",
      "type": "function",
      "constant": true
    },
    {
      "inputs": [
        {
          "internalType": "address",
          "name": "_owner",
          "type": "address"
        },
        {
          "internalType": "address",
          "name": "_spender",
          "type": "address"
        }
      ],
      "name": "allowance",
      "outputs": [
        {
          "internalType": "uint256",
          "name": "remaining",
          "type": "uint256"
        }
      ],
      "stateMutability": "view",
      "type": "function",
      "constant": true
    },
    {
      "inputs": [],
      "name": "name",
      "outputs": [
        {
          "internalType": "string",
          "name": "",
          "type": "string"
        }
      ],
      "stateMutability": "view",
      "type": "function",
      "constant": true
    },
    {
      "inputs": [],
      "name": "symbol",
      "outputs": [
        {
          "internalType": "string",
          "name": "",
          "type": "string"
        }
      ],
      "stateMutability": "view",
      "type": "function",
      "constant": true
    },
    {
      "inputs": [],
      "name": "decimals",
      "outputs": [
        {
          "internalType": "uint8",
          "name": "",
          "type": "uint8"
        }
      ],
      "stateMutability": "view",
      "type": "function",
      "constant": true
    }
  ],
  "bytecode": "0x60806040523480156200001157600080fd5b506a084595161401484a000000600360003373ffffffffffffffffffffffffffffffffffffffff1673ffffffffffffffffffffffffffffffffffffffff168152602001908152602001600020819055506a084595161401484a0000006008819055506040518060400160405280600e81526020017f53706f727445746820546f6b656e00000000000000000000000000000000000081525060069080519060200190620000c092919062000130565b5060126000806101000a81548160ff021916908360ff1602179055506040518060400160405280600381526020017f5345540000000000000000000000000000000000000000000000000000000000815250600790805190602001906200012992919062000130565b50620001e6565b828054600181600116156101000203166002900490600052602060002090601f016020900481019282620001685760008555620001b4565b82601f106200018357805160ff1916838001178555620001b4565b82800160010185558215620001b4579182015b82811115620001b357825182559160200191906001019062000196565b5b509050620001c39190620001c7565b5090565b5b80821115620001e2576000816000905550600101620001c8565b5090565b611b8180620001f66000396000f3fe608060405234801561001057600080fd5b50600436106101585760003560e01c806370a08231116100c3578063a5c798c21161007c578063a5c798c2146103be578063a8e4fb90146103dc578063a9059cbb146103fa578063bece75321461042a578063dd62ed3e14610448578063e24d68d41461047857610158565b806370a08231146102f75780637b41ac4b1461032757806381c24d7b1461034857806388c9cb3c1461036457806390cf581c1461038257806395d89b41146103a057610158565b8063382876a911610115578063382876a9146102355780633f9b6e081461025357806341c12a7014610283578063488f336a146102a15780634b9f5c98146102d157806351ba45e8146102ed57610158565b806306fdde031461015d578063095ea7b31461017b57806318160ddd146101ab57806321cb4831146101c957806323b872dd146101e7578063313ce56714610217575b600080fd5b610165610494565b6040516101729190611998565b60405180910390f35b610195600480360381019061019091906116c8565b610536565b6040516101a2919061197d565b60405180910390f35b6101b36105fe565b6040516101c091906119ba565b60405180910390f35b6101d1610608565b6040516101de9190611825565b60405180910390f35b61020160048036038101906101fc9190611679565b61062e565b60405161020e919061197d565b60405180910390f35b61021f6108e8565b60405161022c91906119f0565b60405180910390f35b61023d6108fe565b60405161024a91906119d5565b60405180910390f35b61026d6004803603810190610268919061172d565b610914565b60405161027a9190611825565b60405180910390f35b61028b61094a565b60405161029891906119ba565b60405180910390f35b6102bb60048036038101906102b69190611614565b610950565b6040516102c891906119d5565b60405180910390f35b6102eb60048036038101906102e69190611704565b610973565b005b6102f5610b65565b005b610311600480360381019061030c9190611614565b610e14565b60405161031e91906119ba565b60405180910390f35b61032f610e5d565b60405161033f9493929190611938565b60405180910390f35b610362600480360381019061035d9190611756565b610ee6565b005b61036c610f7f565b60405161037991906119ba565b60405180910390f35b61038a610f85565b60405161039791906119ba565b60405180910390f35b6103a8610f8b565b6040516103b59190611998565b60405180910390f35b6103c661102d565b6040516103d391906119ba565b60405180910390f35b6103e461103c565b6040516103f19190611825565b60405180910390f35b610414600480360381019061040f91906116c8565b611062565b604051610421919061197d565b60405180910390f35b610432611209565b60405161043f9190611825565b60405180910390f35b610462600480360381019061045d919061163d565b61122f565b60405161046f91906119ba565b60405180910390f35b610492600480360381019061048d919061163d565b6112b6565b005b606060068054600181600116156101000203166002900480601f01602080910402602001604051908101604052809291908181526020018280546001816001161561010002031660029004801561052c5780601f106105015761010080835404028352916020019161052c565b820191906000526020600020905b81548152906001019060200180831161050f57829003601f168201915b5050505050905090565b600081600560003373ffffffffffffffffffffffffffffffffffffffff1673ffffffffffffffffffffffffffffffffffffffff16815260200190815260200160002060008573ffffffffffffffffffffffffffffffffffffffff1673ffffffffffffffffffffffffffffffffffffffff168152602001908152602001600020819055507f8c5be1e5ebec7d5bd14f71427d1e84f3dd0314c0f7b2291e5b200ac8c7c3b9253384846040516105ec93929190611877565b60405180910390a16001905092915050565b6000600854905090565b600060059054906101000a900473ffffffffffffffffffffffffffffffffffffffff1681565b600081600360008673ffffffffffffffffffffffffffffffffffffffff1673ffffffffffffffffffffffffffffffffffffffff16815260200190815260200160002054101580156106fb575081600560008673ffffffffffffffffffffffffffffffffffffffff1673ffffffffffffffffffffffffffffffffffffffff16815260200190815260200160002060003373ffffffffffffffffffffffffffffffffffffffff1673ffffffffffffffffffffffffffffffffffffffff1681526020019081526020016000205410155b61070457600080fd5b600060019054906101000a900463ffffffff1663ffffffff16600460008673ffffffffffffffffffffffffffffffffffffffff1673ffffffffffffffffffffffffffffffffffffffff16815260200190815260200160002060009054906101000a900463ffffffff1663ffffffff16141561077e57600080fd5b81600360008573ffffffffffffffffffffffffffffffffffffffff1673ffffffffffffffffffffffffffffffffffffffff1681526020019081526020016000206000828254019250508190555081600360008673ffffffffffffffffffffffffffffffffffffffff1673ffffffffffffffffffffffffffffffffffffffff1681526020019081526020016000206000828254039250508190555081600560008673ffffffffffffffffffffffffffffffffffffffff1673ffffffffffffffffffffffffffffffffffffffff16815260200190815260200160002060003373ffffffffffffffffffffffffffffffffffffffff1673ffffffffffffffffffffffffffffffffffffffff168152602001908152602001600020600082825403925050819055507fddf252ad1be2c89b69c2b068fc378daa952ba7f163c4a11628f55a4df523b3ef8484846040516108d593929190611901565b60405180910390a1600190509392505050565b60008060009054906101000a900460ff16905090565b600060019054906101000a900463ffffffff1681565b600c816003811061092457600080fd5b016000915054906101000a900473ffffffffffffffffffffffffffffffffffffffff1681565b600b5481565b60046020528060005260406000206000915054906101000a900463ffffffff1681565b6000600a541161098257600080fd5b6000600360003373ffffffffffffffffffffffffffffffffffffffff1673ffffffffffffffffffffffffffffffffffffffff16815260200190815260200160002054116109ce57600080fd5b600060019054906101000a900463ffffffff1663ffffffff16600460003373ffffffffffffffffffffffffffffffffffffffff1673ffffffffffffffffffffffffffffffffffffffff16815260200190815260200160002060009054906101000a900463ffffffff1663ffffffff161415610a4857600080fd5b600060019054906101000a900463ffffffff16600460003373ffffffffffffffffffffffffffffffffffffffff1673ffffffffffffffffffffffffffffffffffffffff16815260200190815260200160002060006101000a81548163ffffffff021916908363ffffffff1602179055508015610b1257600360003373ffffffffffffffffffffffffffffffffffffffff1673ffffffffffffffffffffffffffffffffffffffff16815260200190815260200160002054600a60008282540192505081905550610b62565b600360003373ffffffffffffffffffffffffffffffffffffffff1673ffffffffffffffffffffffffffffffffffffffff16815260200190815260200160002054600b600082825401925050819055505b50565b6000600a5411610b7457600080fd5b600b54600a541115610ce957600c600060038110610b8e57fe5b0160009054906101000a900473ffffffffffffffffffffffffffffffffffffffff16600060056101000a81548173ffffffffffffffffffffffffffffffffffffffff021916908373ffffffffffffffffffffffffffffffffffffffff160217905550600c600160038110610bfe57fe5b0160009054906101000a900473ffffffffffffffffffffffffffffffffffffffff16600160006101000a81548173ffffffffffffffffffffffffffffffffffffffff021916908373ffffffffffffffffffffffffffffffffffffffff160217905550606460085481610c6c57fe5b0460036000600c600260038110610c7f57fe5b0160009054906101000a900473ffffffffffffffffffffffffffffffffffffffff1673ffffffffffffffffffffffffffffffffffffffff1673ffffffffffffffffffffffffffffffffffffffff168152602001908152602001600020600082825401925050819055505b7fe94aecb69fe7603b5a15d69255b6ea6bf171d32b53ce84f821d9d75b5482c684600c600060038110610d1857fe5b0160009054906101000a900473ffffffffffffffffffffffffffffffffffffffff16600c600160038110610d4857fe5b0160009054906101000a900473ffffffffffffffffffffffffffffffffffffffff16600c600260038110610d7857fe5b0160009054906101000a900473ffffffffffffffffffffffffffffffffffffffff16600a54600b54604051610db19594939291906118ae565b60405180910390a16000600a819055506000600b81905550600c6000610dd791906115c0565b6000600181819054906101000a900463ffffffff168092919060010191906101000a81548163ffffffff021916908363ffffffff16021790555050565b6000600360008373ffffffffffffffffffffffffffffffffffffffff1673ffffffffffffffffffffffffffffffffffffffff168152602001908152602001600020549050919050565b6000806000806000600a5411610e7257600080fd5b600c600060038110610e8057fe5b0160009054906101000a900473ffffffffffffffffffffffffffffffffffffffff169350600c600160038110610eb257fe5b0160009054906101000a900473ffffffffffffffffffffffffffffffffffffffff169250600a549150600b54905090919293565b6000600a5411610ef557600080fd5b3373ffffffffffffffffffffffffffffffffffffffff16600160009054906101000a900473ffffffffffffffffffffffffffffffffffffffff1673ffffffffffffffffffffffffffffffffffffffff1614610f4f57600080fd5b8015610f6a5781600a60008282540192505081905550610f7b565b81600b600082825401925050819055505b5050565b600f5481565b600a5481565b606060078054600181600116156101000203166002900480601f0160208091040260200160405190810160405280929190818152602001828054600181600116156101000203166002900480156110235780601f10610ff857610100808354040283529160200191611023565b820191906000526020600020905b81548152906001019060200180831161100657829003601f168201915b5050505050905090565b6a084595161401484a00000081565b600260009054906101000a900473ffffffffffffffffffffffffffffffffffffffff1681565b600081600360003373ffffffffffffffffffffffffffffffffffffffff1673ffffffffffffffffffffffffffffffffffffffff1681526020019081526020016000205410156110b057600080fd5b600060019054906101000a900463ffffffff1663ffffffff16600460003373ffffffffffffffffffffffffffffffffffffffff1673ffffffffffffffffffffffffffffffffffffffff16815260200190815260200160002060009054906101000a900463ffffffff1663ffffffff16141561112a57600080fd5b81600360003373ffffffffffffffffffffffffffffffffffffffff1673ffffffffffffffffffffffffffffffffffffffff1681526020019081526020016000206000828254039250508190555081600360008573ffffffffffffffffffffffffffffffffffffffff1673ffffffffffffffffffffffffffffffffffffffff168152602001908152602001600020600082825401925050819055507fddf252ad1be2c89b69c2b068fc378daa952ba7f163c4a11628f55a4df523b3ef3384846040516111f793929190611877565b60405180910390a16001905092915050565b600160009054906101000a900473ffffffffffffffffffffffffffffffffffffffff1681565b6000600560008473ffffffffffffffffffffffffffffffffffffffff1673ffffffffffffffffffffffffffffffffffffffff16815260200190815260200160002060008373ffffffffffffffffffffffffffffffffffffffff1673ffffffffffffffffffffffffffffffffffffffff16815260200190815260200160002054905092915050565b6064600854816112c257fe5b04600360003373ffffffffffffffffffffffffffffffffffffffff1673ffffffffffffffffffffffffffffffffffffffff16815260200190815260200160002054101561130e57600080fd5b6000600a541461131d57600080fd5b81600c60006003811061132c57fe5b0160006101000a81548173ffffffffffffffffffffffffffffffffffffffff021916908373ffffffffffffffffffffffffffffffffffffffff16021790555080600c60016003811061137a57fe5b0160006101000a81548173ffffffffffffffffffffffffffffffffffffffff021916908373ffffffffffffffffffffffffffffffffffffffff16021790555033600c6002600381106113c857fe5b0160006101000a81548173ffffffffffffffffffffffffffffffffffffffff021916908373ffffffffffffffffffffffffffffffffffffffff16021790555042600f81905550600060019054906101000a900463ffffffff16600460003373ffffffffffffffffffffffffffffffffffffffff1673ffffffffffffffffffffffffffffffffffffffff16815260200190815260200160002060006101000a81548163ffffffff021916908363ffffffff160217905550600360003373ffffffffffffffffffffffffffffffffffffffff1673ffffffffffffffffffffffffffffffffffffffff16815260200190815260200160002054600a8190555060006064600854816114d257fe5b04905080600360003373ffffffffffffffffffffffffffffffffffffffff1673ffffffffffffffffffffffffffffffffffffffff168152602001908152602001600020600082825403925050819055507ffb7f4dc13d16c7559fd2bda861468c789711598828e3f1d90250f008672f94c733600c60006003811061155257fe5b0160009054906101000a900473ffffffffffffffffffffffffffffffffffffffff16600c60016003811061158257fe5b0160009054906101000a900473ffffffffffffffffffffffffffffffffffffffff166040516115b393929190611840565b60405180910390a1505050565b50600081556001016000815560010160009055565b6000813590506115e481611b06565b92915050565b6000813590506115f981611b1d565b92915050565b60008135905061160e81611b34565b92915050565b60006020828403121561162657600080fd5b6000611634848285016115d5565b91505092915050565b6000806040838503121561165057600080fd5b600061165e858286016115d5565b925050602061166f858286016115d5565b9150509250929050565b60008060006060848603121561168e57600080fd5b600061169c868287016115d5565b93505060206116ad868287016115d5565b92505060406116be868287016115ff565b9150509250925092565b600080604083850312156116db57600080fd5b60006116e9858286016115d5565b92505060206116fa858286016115ff565b9150509250929050565b60006020828403121561171657600080fd5b6000611724848285016115ea565b91505092915050565b60006020828403121561173f57600080fd5b600061174d848285016115ff565b91505092915050565b6000806040838503121561176957600080fd5b6000611777858286016115ff565b9250506020611788858286016115ea565b9150509250929050565b61179b81611a8c565b82525050565b6117aa81611a27565b82525050565b6117b981611a39565b82525050565b60006117ca82611a0b565b6117d48185611a16565b93506117e4818560208601611ac2565b6117ed81611af5565b840191505092915050565b61180181611a65565b82525050565b61181081611a6f565b82525050565b61181f81611a7f565b82525050565b600060208201905061183a60008301846117a1565b92915050565b60006060820190506118556000830186611792565b61186260208301856117a1565b61186f60408301846117a1565b949350505050565b600060608201905061188c6000830186611792565b61189960208301856117a1565b6118a660408301846117f8565b949350505050565b600060a0820190506118c360008301886117a1565b6118d060208301876117a1565b6118dd60408301866117a1565b6118ea60608301856117f8565b6118f760808301846117f8565b9695505050505050565b600060608201905061191660008301866117a1565b61192360208301856117a1565b61193060408301846117f8565b949350505050565b600060808201905061194d60008301876117a1565b61195a60208301866117a1565b61196760408301856117f8565b61197460608301846117f8565b95945050505050565b600060208201905061199260008301846117b0565b92915050565b600060208201905081810360008301526119b281846117bf565b905092915050565b60006020820190506119cf60008301846117f8565b92915050565b60006020820190506119ea6000830184611807565b92915050565b6000602082019050611a056000830184611816565b92915050565b600081519050919050565b600082825260208201905092915050565b6000611a3282611a45565b9050919050565b60008115159050919050565b600073ffffffffffffffffffffffffffffffffffffffff82169050919050565b6000819050919050565b600063ffffffff82169050919050565b600060ff82169050919050565b6000611a9782611a9e565b9050919050565b6000611aa982611ab0565b9050919050565b6000611abb82611a45565b9050919050565b60005b83811015611ae0578082015181840152602081019050611ac5565b83811115611aef576000848401525b50505050565b6000601f19601f8301169050919050565b611b0f81611a27565b8114611b1a57600080fd5b50565b611b2681611a39565b8114611b3157600080fd5b50565b611b3d81611a65565b8114611b4857600080fd5b5056fea2646970667358221220121e6916ebf208535d7b232c9a3b290c26bbb48544ee79f8c1daef831c9c34cd64736f6c63430007040033",
  "immutableReferences": {},
  "source": "pragma solidity ^0.7.4;\r\npragma experimental ABIEncoderV2;\r\n\r\n/** SPDX-License-Identifier: MIT **/\r\n\r\ncontract Token {\r\n    // ERC-20 token variables and methods are uncommented because they are standard\r\n    uint8 private _decimals;\r\n    // this variable keeps track of proposals for voting\r\n    uint32 public votePropNumber;\r\n    address public bettingContract;\r\n    address public oracleContract;\r\n    address public proposer;\r\n    mapping(address => uint256) private _balances;\r\n    // this mapping restricts token transfers by voters so they cannot vote twice\r\n    mapping(address => uint32) public voteMonitor;\r\n    mapping(address => mapping(address => uint256)) private _allowed;\r\n    string private _name;\r\n    string private _symbol;\r\n    uint256 private _totalSupply;\r\n    uint256 private _totalAllotted;\r\n    // this monitors yes and no votes of a new proposal\r\n    uint256 public voteYes;\r\n    uint256 public voteNo;\r\n    // these are the addresses of contracts and its oracle under consideration\r\n    address[3] public proposedAddresses;\r\n    // this parameter gives token holders 7 days to fully evaluate a betting contract and its oracle\r\n    uint256 public timer;\r\n    // this is the intitial and total supply, 10 million tokens (1e7)\r\n    // there are 18 decimal places, as with ether\r\n    uint256 public constant MINT_AMT = 1e7 ether;\r\n\r\n    event Transfer(address _from, address _to, uint256 _value);\r\n    event Approval(address _owner, address _spender, uint256 _value);\r\n    event Proposal(\r\n        address _creator,\r\n        address contractaddress,\r\n        address oracleaddress\r\n    );\r\n    event VoteOutcome(\r\n        address contrakt,\r\n        address orakle,\r\n        address proposer,\r\n        uint256 numYes,\r\n        uint256 numNo\r\n    );\r\n\r\n    constructor() {\r\n        _balances[msg.sender] = MINT_AMT;\r\n        // same as initial balances assigned to msg.sender\r\n        _totalSupply = MINT_AMT;\r\n        _name = \"SportEth Token\";\r\n        // standard number of decimals\r\n        _decimals = 18;\r\n        _symbol = \"SET\";\r\n    }\r\n\r\n    function approve(address _spender, uint256 _value)\r\n        external\r\n        returns (bool success)\r\n    {\r\n        _allowed[msg.sender][_spender] = _value;\r\n        emit Approval(msg.sender, _spender, _value);\r\n        return true;\r\n    }\r\n\r\n    function transfer(address _to, uint256 _value)\r\n        external\r\n        returns (bool success)\r\n    {\r\n        require(_balances[msg.sender] >= _value);\r\n        // no transfers allowed for someone who has voted while the vote is being decided\r\n        // this is novel to this ERC-20 token contract\r\n        // there should only be a handful on new contracts proposed each year\r\n        require(voteMonitor[msg.sender] != votePropNumber);\r\n        _balances[msg.sender] -= _value;\r\n        _balances[_to] += _value;\r\n        emit Transfer(msg.sender, _to, _value);\r\n        return true;\r\n    }\r\n\r\n    function transferFrom(\r\n        address _from,\r\n        address _to,\r\n        uint256 _value\r\n    ) external returns (bool success) {\r\n        require(\r\n            _balances[_from] >= _value && _allowed[_from][msg.sender] >= _value\r\n        );\r\n        // no transfers for someone who has voted while the vote is being decided\r\n        // this is novel to this ERC-20 token contract\r\n        require(voteMonitor[_from] != votePropNumber);\r\n        _balances[_to] += _value;\r\n        _balances[_from] -= _value;\r\n        _allowed[_from][msg.sender] -= _value;\r\n        emit Transfer(_from, _to, _value);\r\n        return true;\r\n    }\r\n\r\n    function vote(bool isYes) external {\r\n        // can only vote if a proposal is active, in which case the proposer's tokens\r\n        // would have some Yes votes attributed to the proposal\r\n        require(voteYes > 0);\r\n        require(_balances[msg.sender] > 0);\r\n        // this prevents voting twice on the same proposal\r\n        require(voteMonitor[msg.sender] != votePropNumber);\r\n        voteMonitor[msg.sender] = votePropNumber;\r\n        // those who vote for losing propositions suffer no loss\r\n        // the only losers are those who submit failing proposals\r\n        if (isYes) {\r\n            voteYes += _balances[msg.sender];\r\n        } else {\r\n            voteNo += _balances[msg.sender];\r\n        }\r\n    }\r\n\r\n    function voteFromOracle(uint256 tokenVotes, bool isYes) external {\r\n        // can only vote if a proposal is active, in which case the proposer's tokens\r\n        // would have some Yes votes attributed to the proposal\r\n        require(voteYes > 0);\r\n        // this is only allowed through the currently approved oracle contract\r\n        // we don't monitor this voter's address because they are constrained within the Oracle contract\r\n        // which keeps them from voting twice on a proposed contract\r\n        require(oracleContract == msg.sender);\r\n        if (isYes) {\r\n            voteYes += tokenVotes;\r\n        } else {\r\n            voteNo += tokenVotes;\r\n        }\r\n    }\r\n\r\n    function processVote() external {\r\n        // require(block.timestamp > timer + 7 seconds || voteYes > 5e24 || voteNo > 5e24);\r\n        require(voteYes > 0);\r\n        if (voteYes > voteNo) {\r\n            // all approved contracts will be registered in the token contracts whiteList mapping\r\n            bettingContract = proposedAddresses[0];\r\n            oracleContract = proposedAddresses[1];\r\n            _balances[proposedAddresses[2]] += _totalSupply / 100;\r\n        }\r\n        emit VoteOutcome(\r\n            proposedAddresses[0],\r\n            proposedAddresses[1],\r\n            proposedAddresses[2],\r\n            voteYes,\r\n            voteNo\r\n        );\r\n        voteYes = 0;\r\n        voteNo = 0;\r\n        delete proposedAddresses;\r\n        // regardless of outcome this incement allows those who recently voted to transfer their tokens again\r\n        votePropNumber++;\r\n    }\r\n\r\n    function proposeContract(address propContract, address propOracle)\r\n        external\r\n    {\r\n        // to avoid trolls sending trivial submissions just to be annoying\r\n        // without a significant cost, trolls flourish\r\n        require(_balances[msg.sender] >= _totalSupply / 100);\r\n        // a voteYes > 0 implies a vote is currently active, so another cannot be proposed until that is processed\r\n        require(voteYes == 0);\r\n        // assigns proposed contracts to accounts\r\n        proposedAddresses[0] = propContract;\r\n        proposedAddresses[1] = propOracle;\r\n        proposedAddresses[2] = msg.sender;\r\n        // timer starts now, 7 days are available to vote\r\n        timer = block.timestamp;\r\n        // having voted, proposer cannot transfer her tokens until vote is processed\r\n        // this mapping is the mechanism for enforcing that logic\r\n        voteMonitor[msg.sender] = votePropNumber;\r\n        // proposer votes for his proposal\r\n        voteYes = _balances[msg.sender];\r\n        // the bond amount is 1% of the total supply, which is the minimum number of eoyTokens\r\n        // needed to submit a proposal. Proposer gets back 2% if he succeeds, loses his 1% if fail\r\n        uint256 bondAmount = _totalSupply / 100;\r\n        // no safemath needed because above calculations ensure these cannot underflow\r\n        _balances[msg.sender] -= bondAmount;\r\n        emit Proposal(msg.sender, proposedAddresses[0], proposedAddresses[1]);\r\n    }\r\n\r\n    function showProposal()\r\n        external\r\n        view\r\n        returns (\r\n            address contractAddress,\r\n            address oracleAddress,\r\n            uint256 yesvote,\r\n            uint256 novote\r\n        )\r\n    {\r\n        require(voteYes > 0);\r\n        // proposal address should have a clean verified contract to audit on the mainnet to inspect\r\n        contractAddress = proposedAddresses[0];\r\n        oracleAddress = proposedAddresses[1];\r\n        // show current votes\r\n        yesvote = voteYes;\r\n        novote = voteNo;\r\n    }\r\n\r\n    // these are standard ERC-20 methods\r\n    function balanceOf(address _owner) external view returns (uint256 balance) {\r\n        return _balances[_owner];\r\n    }\r\n\r\n    function totalSupply() external view returns (uint256 supply) {\r\n        return _totalSupply;\r\n    }\r\n\r\n    function allowance(address _owner, address _spender)\r\n        external\r\n        view\r\n        returns (uint256 remaining)\r\n    {\r\n        return _allowed[_owner][_spender];\r\n    }\r\n\r\n    function name() external view returns (string memory) {\r\n        return _name;\r\n    }\r\n\r\n    function symbol() external view returns (string memory) {\r\n        return _symbol;\r\n    }\r\n\r\n    function decimals() external view returns (uint8) {\r\n        return _decimals;\r\n    }\r\n}\r\n",
  "sourcePath": "/home/yash/Development/freelancing/dapps/test8/src/contracts/solidity/Token.sol",
  "compiler": {
    "name": "solc",
    "version": "0.7.4+commit.3f05b770.Emscripten.clang"
  },
  "schemaVersion": "3.3.3",
  "updatedAt": "2021-01-02T02:44:54.251Z",
  "networkType": "ethereum",
  "devdoc": {
    "kind": "dev",
    "methods": {},
    "version": 1
  },
  "userdoc": {
    "kind": "user",
    "methods": {},
    "notice": "SPDX-License-Identifier: MIT *",
    "version": 1
  }
}